{
  "_format": "hh-sol-artifact-1",
  "contractName": "BondingCurvePool",
  "sourceName": "contracts/BondingCurvePool.sol",
  "abi": [
    {
      "inputs": [
        {
          "internalType": "address",
          "name": "_token",
          "type": "address"
        },
        {
          "internalType": "uint256",
          "name": "_maxSupply",
          "type": "uint256"
        }
      ],
      "stateMutability": "nonpayable",
      "type": "constructor"
    },
    {
      "inputs": [],
      "name": "ReentrancyGuardReentrantCall",
      "type": "error"
    },
    {
      "anonymous": false,
      "inputs": [
        {
          "indexed": true,
          "internalType": "address",
          "name": "buyer",
          "type": "address"
        },
        {
          "indexed": false,
          "internalType": "uint256",
          "name": "ethAmount",
          "type": "uint256"
        },
        {
          "indexed": false,
          "internalType": "uint256",
          "name": "tokenAmount",
          "type": "uint256"
        },
        {
          "indexed": false,
          "internalType": "uint256",
          "name": "vestingScheduleId",
          "type": "uint256"
        }
      ],
      "name": "Bought",
      "type": "event"
    },
    {
      "anonymous": false,
      "inputs": [
        {
          "indexed": false,
          "internalType": "uint256",
          "name": "finalMarketCap",
          "type": "uint256"
        },
        {
          "indexed": false,
          "internalType": "uint256",
          "name": "finalSupply",
          "type": "uint256"
        },
        {
          "indexed": false,
          "internalType": "uint256",
          "name": "timestamp",
          "type": "uint256"
        }
      ],
      "name": "Graduated",
      "type": "event"
    },
    {
      "anonymous": false,
      "inputs": [
        {
          "indexed": true,
          "internalType": "address",
          "name": "creator",
          "type": "address"
        },
        {
          "indexed": false,
          "internalType": "uint256",
          "name": "ethAmount",
          "type": "uint256"
        }
      ],
      "name": "Initialized",
      "type": "event"
    },
    {
      "anonymous": false,
      "inputs": [
        {
          "indexed": true,
          "internalType": "address",
          "name": "seller",
          "type": "address"
        },
        {
          "indexed": false,
          "internalType": "uint256",
          "name": "ethAmount",
          "type": "uint256"
        },
        {
          "indexed": false,
          "internalType": "uint256",
          "name": "tokenAmount",
          "type": "uint256"
        }
      ],
      "name": "Sold",
      "type": "event"
    },
    {
      "anonymous": false,
      "inputs": [
        {
          "indexed": true,
          "internalType": "address",
          "name": "treasury",
          "type": "address"
        }
      ],
      "name": "TreasurySet",
      "type": "event"
    },
    {
      "anonymous": false,
      "inputs": [
        {
          "indexed": true,
          "internalType": "address",
          "name": "vestingContract",
          "type": "address"
        }
      ],
      "name": "VestingContractSet",
      "type": "event"
    },
    {
      "inputs": [],
      "name": "BUY_FEE_BP",
      "outputs": [
        {
          "internalType": "uint256",
          "name": "",
          "type": "uint256"
        }
      ],
      "stateMutability": "view",
      "type": "function"
    },
    {
      "inputs": [],
      "name": "CURVE_EXPONENT",
      "outputs": [
        {
          "internalType": "uint256",
          "name": "",
          "type": "uint256"
        }
      ],
      "stateMutability": "view",
      "type": "function"
    },
    {
      "inputs": [],
      "name": "GRADUATION_MARKET_CAP",
      "outputs": [
        {
          "internalType": "uint256",
          "name": "",
          "type": "uint256"
        }
      ],
      "stateMutability": "view",
      "type": "function"
    },
    {
      "inputs": [],
      "name": "GRADUATION_SUPPLY_PERCENT",
      "outputs": [
        {
          "internalType": "uint256",
          "name": "",
          "type": "uint256"
        }
      ],
      "stateMutability": "view",
      "type": "function"
    },
    {
      "inputs": [],
      "name": "INITIAL_PRICE",
      "outputs": [
        {
          "internalType": "uint256",
          "name": "",
          "type": "uint256"
        }
      ],
      "stateMutability": "view",
      "type": "function"
    },
    {
      "inputs": [],
      "name": "SELL_FEE_BP",
      "outputs": [
        {
          "internalType": "uint256",
          "name": "",
          "type": "uint256"
        }
      ],
      "stateMutability": "view",
      "type": "function"
    },
    {
      "inputs": [],
      "name": "buy",
      "outputs": [],
      "stateMutability": "payable",
      "type": "function"
    },
    {
      "inputs": [
        {
          "internalType": "uint256",
          "name": "ethAmount",
          "type": "uint256"
        }
      ],
      "name": "calculatePurchaseReturn",
      "outputs": [
        {
          "internalType": "uint256",
          "name": "",
          "type": "uint256"
        }
      ],
      "stateMutability": "view",
      "type": "function"
    },
    {
      "inputs": [
        {
          "internalType": "uint256",
          "name": "tokenAmount",
          "type": "uint256"
        }
      ],
      "name": "calculateSaleReturn",
      "outputs": [
        {
          "internalType": "uint256",
          "name": "",
          "type": "uint256"
        }
      ],
      "stateMutability": "view",
      "type": "function"
    },
    {
      "inputs": [],
      "name": "canGraduate",
      "outputs": [
        {
          "internalType": "bool",
          "name": "",
          "type": "bool"
        }
      ],
      "stateMutability": "view",
      "type": "function"
    },
    {
      "inputs": [],
      "name": "creator",
      "outputs": [
        {
          "internalType": "address",
          "name": "",
          "type": "address"
        }
      ],
      "stateMutability": "view",
      "type": "function"
    },
    {
      "inputs": [],
      "name": "currentPrice",
      "outputs": [
        {
          "internalType": "uint256",
          "name": "",
          "type": "uint256"
        }
      ],
      "stateMutability": "view",
      "type": "function"
    },
    {
      "inputs": [],
      "name": "factory",
      "outputs": [
        {
          "internalType": "address",
          "name": "",
          "type": "address"
        }
      ],
      "stateMutability": "view",
      "type": "function"
    },
    {
      "inputs": [],
      "name": "getGraduationProgress",
      "outputs": [
        {
          "internalType": "uint256",
          "name": "marketCapProgress",
          "type": "uint256"
        },
        {
          "internalType": "uint256",
          "name": "supplyProgress",
          "type": "uint256"
        }
      ],
      "stateMutability": "view",
      "type": "function"
    },
    {
      "inputs": [],
      "name": "getMarketCap",
      "outputs": [
        {
          "internalType": "uint256",
          "name": "",
          "type": "uint256"
        }
      ],
      "stateMutability": "view",
      "type": "function"
    },
    {
      "inputs": [],
      "name": "graduated",
      "outputs": [
        {
          "internalType": "bool",
          "name": "",
          "type": "bool"
        }
      ],
      "stateMutability": "view",
      "type": "function"
    },
    {
      "inputs": [
        {
          "internalType": "address",
          "name": "_creator",
          "type": "address"
        }
      ],
      "name": "initialize",
      "outputs": [],
      "stateMutability": "payable",
      "type": "function"
    },
    {
      "inputs": [],
      "name": "initialized",
      "outputs": [
        {
          "internalType": "bool",
          "name": "",
          "type": "bool"
        }
      ],
      "stateMutability": "view",
      "type": "function"
    },
    {
      "inputs": [],
      "name": "maxSupply",
      "outputs": [
        {
          "internalType": "uint256",
          "name": "",
          "type": "uint256"
        }
      ],
      "stateMutability": "view",
      "type": "function"
    },
    {
      "inputs": [],
      "name": "reserveBalance",
      "outputs": [
        {
          "internalType": "uint256",
          "name": "",
          "type": "uint256"
        }
      ],
      "stateMutability": "view",
      "type": "function"
    },
    {
      "inputs": [
        {
          "internalType": "uint256",
          "name": "tokenAmount",
          "type": "uint256"
        }
      ],
      "name": "sell",
      "outputs": [],
      "stateMutability": "nonpayable",
      "type": "function"
    },
    {
      "inputs": [
        {
          "internalType": "address",
          "name": "_treasury",
          "type": "address"
        }
      ],
      "name": "setTreasury",
      "outputs": [],
      "stateMutability": "nonpayable",
      "type": "function"
    },
    {
      "inputs": [
        {
          "internalType": "address",
          "name": "_vestingContract",
          "type": "address"
        }
      ],
      "name": "setVestingContract",
      "outputs": [],
      "stateMutability": "nonpayable",
      "type": "function"
    },
    {
      "inputs": [],
      "name": "token",
      "outputs": [
        {
          "internalType": "address",
          "name": "",
          "type": "address"
        }
      ],
      "stateMutability": "view",
      "type": "function"
    },
    {
      "inputs": [],
      "name": "tokenSupply",
      "outputs": [
        {
          "internalType": "uint256",
          "name": "",
          "type": "uint256"
        }
      ],
      "stateMutability": "view",
      "type": "function"
    },
    {
      "inputs": [],
      "name": "treasury",
      "outputs": [
        {
          "internalType": "address",
          "name": "",
          "type": "address"
        }
      ],
      "stateMutability": "view",
      "type": "function"
    },
    {
      "inputs": [],
      "name": "vestingContract",
      "outputs": [
        {
          "internalType": "address",
          "name": "",
          "type": "address"
        }
      ],
      "stateMutability": "view",
      "type": "function"
    },
    {
      "stateMutability": "payable",
      "type": "receive"
    }
  ],
  "bytecode": "0x60806040523480156200001157600080fd5b50604051620027b5380380620027b5833981810160405281019062000037919062000175565b600160008190555081600160006101000a81548173ffffffffffffffffffffffffffffffffffffffff021916908373ffffffffffffffffffffffffffffffffffffffff16021790555033600260006101000a81548173ffffffffffffffffffffffffffffffffffffffff021916908373ffffffffffffffffffffffffffffffffffffffff160217905550806007819055505050620001bc565b600080fd5b600073ffffffffffffffffffffffffffffffffffffffff82169050919050565b60006200010282620000d5565b9050919050565b6200011481620000f5565b81146200012057600080fd5b50565b600081519050620001348162000109565b92915050565b6000819050919050565b6200014f816200013a565b81146200015b57600080fd5b50565b6000815190506200016f8162000144565b92915050565b600080604083850312156200018f576200018e620000d0565b5b60006200019f8582860162000123565b9250506020620001b2858286016200015e565b9150509250929050565b6125e980620001cc6000396000f3fe6080604052600436106101a05760003560e01c806390825c28116100ec578063d5abeb011161008a578063e7c2b77211610064578063e7c2b7721461057a578063e973c557146105a5578063f0f44260146105d0578063fc0c546a146105f9576101a7565b8063d5abeb01146104fb578063d701d1c814610526578063e4849b3214610551576101a7565b8063a6f2ae3a116100c6578063a6f2ae3a1461047e578063c45a015514610488578063c4d66de8146104b3578063c764263a146104cf576101a7565b806390825c28146103fd5780639d1b464a14610428578063a10954fe14610453576101a7565b806361d027b3116101595780637824407f116101335780637824407f146103515780637c5e27951461037c57806383c46137146103a75780638a08f3d5146103d2576101a7565b806361d027b3146102c057806369fcd4ac146102eb5780637499156914610328576101a7565b806302d05d3f146101ac578063158ef93e146101d7578063322d2100146102025780634a210e531461023f5780634d899f7e1461026a5780635e6f604514610295576101a7565b366101a757005b600080fd5b3480156101b857600080fd5b506101c1610624565b6040516101ce919061195b565b60405180910390f35b3480156101e357600080fd5b506101ec61064a565b6040516101f99190611991565b60405180910390f35b34801561020e57600080fd5b50610229600480360381019061022491906119e7565b61065d565b6040516102369190611a23565b60405180910390f35b34801561024b57600080fd5b50610254610705565b6040516102619190611a23565b60405180910390f35b34801561027657600080fd5b5061027f61070a565b60405161028c9190611a23565b60405180910390f35b3480156102a157600080fd5b506102aa61070f565b6040516102b7919061195b565b60405180910390f35b3480156102cc57600080fd5b506102d5610735565b6040516102e2919061195b565b60405180910390f35b3480156102f757600080fd5b50610312600480360381019061030d91906119e7565b61075b565b60405161031f9190611a23565b60405180910390f35b34801561033457600080fd5b5061034f600480360381019061034a9190611a6a565b61081b565b005b34801561035d57600080fd5b506103666109c3565b6040516103739190611a23565b60405180910390f35b34801561038857600080fd5b506103916109c9565b60405161039e9190611a23565b60405180910390f35b3480156103b357600080fd5b506103bc6109d3565b6040516103c99190611991565b60405180910390f35b3480156103de57600080fd5b506103e7610a42565b6040516103f49190611a23565b60405180910390f35b34801561040957600080fd5b50610412610a47565b60405161041f9190611a23565b60405180910390f35b34801561043457600080fd5b5061043d610a51565b60405161044a9190611a23565b60405180910390f35b34801561045f57600080fd5b50610468610abb565b6040516104759190611a23565b60405180910390f35b610486610ac1565b005b34801561049457600080fd5b5061049d610f31565b6040516104aa919061195b565b60405180910390f35b6104cd60048036038101906104c89190611a6a565b610f57565b005b3480156104db57600080fd5b506104e4611250565b6040516104f2929190611a97565b60405180910390f35b34801561050757600080fd5b506105106112b5565b60405161051d9190611a23565b60405180910390f35b34801561053257600080fd5b5061053b6112bb565b6040516105489190611a23565b60405180910390f35b34801561055d57600080fd5b50610578600480360381019061057391906119e7565b6112c0565b005b34801561058657600080fd5b5061058f6115c0565b60405161059c9190611991565b60405180910390f35b3480156105b157600080fd5b506105ba6115d3565b6040516105c79190611a23565b60405180910390f35b3480156105dc57600080fd5b506105f760048036038101906105f29190611a6a565b6115e1565b005b34801561060557600080fd5b5061060e611789565b60405161061b919061195b565b60405180910390f35b600460009054906101000a900473ffffffffffffffffffffffffffffffffffffffff1681565b600860159054906101000a900460ff1681565b600080600654036106a35761069c655af3107a40006ec097ce7bc90715b34b9f10000000008461068d9190611aef565b6106979190611b60565b6117af565b9050610700565b6000826005546106b39190611b91565b905060006106eb655af3107a40006ec097ce7bc90715b34b9f1000000000846106dc9190611aef565b6106e69190611b60565b6117af565b9050600654816106fb9190611bc5565b925050505b919050565b606481565b60c881565b600360009054906101000a900473ffffffffffffffffffffffffffffffffffffffff1681565b600860019054906101000a900473ffffffffffffffffffffffffffffffffffffffff1681565b60006006548211156107a2576040517f08c379a000000000000000000000000000000000000000000000000000000000815260040161079990611c56565b60405180910390fd5b6000600654036107b55760009050610816565b6000826006546107c59190611bc5565b905060006ec097ce7bc90715b34b9f1000000000655af3107a40006002846107ed9190611db6565b6107f79190611aef565b6108019190611b60565b9050806005546108119190611bc5565b925050505b919050565b600260009054906101000a900473ffffffffffffffffffffffffffffffffffffffff1673ffffffffffffffffffffffffffffffffffffffff163373ffffffffffffffffffffffffffffffffffffffff16146108ab576040517f08c379a00000000000000000000000000000000000000000000000000000000081526004016108a290611e4d565b60405180910390fd5b600073ffffffffffffffffffffffffffffffffffffffff16600360009054906101000a900473ffffffffffffffffffffffffffffffffffffffff1673ffffffffffffffffffffffffffffffffffffffff161461093c576040517f08c379a000000000000000000000000000000000000000000000000000000000815260040161093390611eb9565b60405180910390fd5b80600360006101000a81548173ffffffffffffffffffffffffffffffffffffffff021916908373ffffffffffffffffffffffffffffffffffffffff1602179055508073ffffffffffffffffffffffffffffffffffffffff167f5cc1ef5240bc2eaf2d8700ad762816942f83c3049659585c4e09280eeaeacea860405160405180910390a250565b60065481565b655af3107a400081565b6000600860009054906101000a900460ff16156109f35760009050610a3f565b600060055490506000690e9c7f5bd65501200000821015905060006055600754610a1d9190611aef565b6064600654610a2c9190611aef565b101590508180610a395750805b93505050505b90565b605581565b6000600554905090565b60008060065403610a6a57655af3107a40009050610ab8565b60016002610a789190611bc5565b670de0b6b3a7640000610a8b9190611ed9565b6002600654610a9a9190611ed9565b655af3107a4000610aab9190611aef565b610ab59190611b60565b90505b90565b60055481565b610ac961180c565b600860009054906101000a900460ff1615610b19576040517f08c379a0000000000000000000000000000000000000000000000000000000008152600401610b1090611f70565b60405180910390fd5b60075460065410610b5f576040517f08c379a0000000000000000000000000000000000000000000000000000000008152600401610b5690611fdc565b60405180910390fd5b6000612710606434610b719190611aef565b610b7b9190611b60565b905060008134610b8b9190611bc5565b90506000610b988261065d565b905060008111610bdd576040517f08c379a0000000000000000000000000000000000000000000000000000000008152600401610bd490612048565b60405180910390fd5b60075481600654610bee9190611b91565b1115610c0757600654600754610c049190611bc5565b90505b8160056000828254610c199190611b91565b925050819055508060066000828254610c329190611b91565b925050819055506000831115610cac57600860019054906101000a900473ffffffffffffffffffffffffffffffffffffffff1673ffffffffffffffffffffffffffffffffffffffff166108fc849081150290604051600060405180830381858888f19350505050158015610caa573d6000803e3d6000fd5b505b6000600360009054906101000a900473ffffffffffffffffffffffffffffffffffffffff1690506000808273ffffffffffffffffffffffffffffffffffffffff166390a95d6f6006546007546040518363ffffffff1660e01b8152600401610d15929190611a97565b6040805180830381865afa158015610d31573d6000803e3d6000fd5b505050506040513d601f19601f82011682018060405250810190610d55919061207d565b91509150600160009054906101000a900473ffffffffffffffffffffffffffffffffffffffff1673ffffffffffffffffffffffffffffffffffffffff1663095ea7b3600360009054906101000a900473ffffffffffffffffffffffffffffffffffffffff16866040518363ffffffff1660e01b8152600401610dd89291906120bd565b6020604051808303816000875af1158015610df7573d6000803e3d6000fd5b505050506040513d601f19601f82011682018060405250810190610e1b9190612112565b5060008373ffffffffffffffffffffffffffffffffffffffff166367ee1e60600160009054906101000a900473ffffffffffffffffffffffffffffffffffffffff16338887876040518663ffffffff1660e01b8152600401610e8195949392919061213f565b6020604051808303816000875af1158015610ea0573d6000803e3d6000fd5b505050506040513d601f19601f82011682018060405250810190610ec49190612192565b90503373ffffffffffffffffffffffffffffffffffffffff167fedba86fd2b22962d534e70ad9b0ff8730de46f636146f2bab6a72cbb1ebbcc53348784604051610f10939291906121bf565b60405180910390a2610f20611852565b50505050505050610f2f611910565b565b600260009054906101000a900473ffffffffffffffffffffffffffffffffffffffff1681565b600260009054906101000a900473ffffffffffffffffffffffffffffffffffffffff1673ffffffffffffffffffffffffffffffffffffffff163373ffffffffffffffffffffffffffffffffffffffff1614610fe7576040517f08c379a0000000000000000000000000000000000000000000000000000000008152600401610fde90612242565b60405180910390fd5b600860159054906101000a900460ff1615611037576040517f08c379a000000000000000000000000000000000000000000000000000000000815260040161102e906122ae565b60405180910390fd5b6000341161107a576040517f08c379a00000000000000000000000000000000000000000000000000000000081526004016110719061231a565b60405180910390fd5b600073ffffffffffffffffffffffffffffffffffffffff16600360009054906101000a900473ffffffffffffffffffffffffffffffffffffffff1673ffffffffffffffffffffffffffffffffffffffff160361110b576040517f08c379a000000000000000000000000000000000000000000000000000000000815260040161110290612386565b60405180910390fd5b600073ffffffffffffffffffffffffffffffffffffffff16600860019054906101000a900473ffffffffffffffffffffffffffffffffffffffff1673ffffffffffffffffffffffffffffffffffffffff160361119c576040517f08c379a0000000000000000000000000000000000000000000000000000000008152600401611193906123f2565b60405180910390fd5b80600460006101000a81548173ffffffffffffffffffffffffffffffffffffffff021916908373ffffffffffffffffffffffffffffffffffffffff160217905550346005819055506001600860156101000a81548160ff0219169083151502179055508073ffffffffffffffffffffffffffffffffffffffff167f25ff68dd81b34665b5ba7e553ee5511bf6812e12adb4a7e2c0d9e26b3099ce79346040516112459190611a23565b60405180910390a250565b600080690e9c7f5bd6550120000061271060055461126e9190611aef565b6112789190611b60565b91506064605560075461128b9190611aef565b6112959190611b60565b6127106006546112a59190611aef565b6112af9190611b60565b90509091565b60075481565b600281565b6112c861180c565b600860009054906101000a900460ff16611317576040517f08c379a000000000000000000000000000000000000000000000000000000000815260040161130e90612484565b60405180910390fd5b60006113228261075b565b905060008111611367576040517f08c379a000000000000000000000000000000000000000000000000000000000815260040161135e906124f0565b60405180910390fd5b600061271060c8836113799190611aef565b6113839190611b60565b9050600081836113939190611bc5565b905082600560008282546113a79190611bc5565b9250508190555083600660008282546113c09190611bc5565b92505081905550600160009054906101000a900473ffffffffffffffffffffffffffffffffffffffff1673ffffffffffffffffffffffffffffffffffffffff166323b872dd3330876040518463ffffffff1660e01b815260040161142693929190612510565b6020604051808303816000875af1158015611445573d6000803e3d6000fd5b505050506040513d601f19601f820116820180604052508101906114699190612112565b6114a8576040517f08c379a000000000000000000000000000000000000000000000000000000000815260040161149f90612593565b60405180910390fd5b3373ffffffffffffffffffffffffffffffffffffffff166108fc829081150290604051600060405180830381858888f193505050501580156114ee573d6000803e3d6000fd5b50600082111561156257600860019054906101000a900473ffffffffffffffffffffffffffffffffffffffff1673ffffffffffffffffffffffffffffffffffffffff166108fc839081150290604051600060405180830381858888f19350505050158015611560573d6000803e3d6000fd5b505b3373ffffffffffffffffffffffffffffffffffffffff167fbac9694ac0daa55169abd117086fe32c89401d9a3b15dd1d34e55e0aa4e47a9d82866040516115aa929190611a97565b60405180910390a25050506115bd611910565b50565b600860009054906101000a900460ff1681565b690e9c7f5bd6550120000081565b600260009054906101000a900473ffffffffffffffffffffffffffffffffffffffff1673ffffffffffffffffffffffffffffffffffffffff163373ffffffffffffffffffffffffffffffffffffffff1614611671576040517f08c379a000000000000000000000000000000000000000000000000000000000815260040161166890611e4d565b60405180910390fd5b600073ffffffffffffffffffffffffffffffffffffffff16600860019054906101000a900473ffffffffffffffffffffffffffffffffffffffff1673ffffffffffffffffffffffffffffffffffffffff1614611702576040517f08c379a00000000000000000000000000000000000000000000000000000000081526004016116f990611eb9565b60405180910390fd5b80600860016101000a81548173ffffffffffffffffffffffffffffffffffffffff021916908373ffffffffffffffffffffffffffffffffffffffff1602179055508073ffffffffffffffffffffffffffffffffffffffff167f3c864541ef71378c6229510ed90f376565ee42d9c5e0904a984a9e863e6db44f60405160405180910390a250565b600160009054906101000a900473ffffffffffffffffffffffffffffffffffffffff1681565b60008060026001846117c19190611b91565b6117cb9190611b60565b90508291505b818110156118065780915060028182856117eb9190611b60565b6117f59190611b91565b6117ff9190611b60565b90506117d1565b50919050565b600260005403611848576040517f3ee5aeb500000000000000000000000000000000000000000000000000000000815260040160405180910390fd5b6002600081905550565b600860009054906101000a900460ff1661190e57600060055490506000690e9c7f5bd655012000008210159050600060556007546118909190611aef565b606460065461189f9190611aef565b1015905081806118ac5750805b1561190a576001600860006101000a81548160ff0219169083151502179055507f72a089bf72f8bdb633c01144c6cf486e8b100097b06bd326948141b7bd827d888360065442604051611901939291906121bf565b60405180910390a15b5050505b565b6001600081905550565b600073ffffffffffffffffffffffffffffffffffffffff82169050919050565b60006119458261191a565b9050919050565b6119558161193a565b82525050565b6000602082019050611970600083018461194c565b92915050565b60008115159050919050565b61198b81611976565b82525050565b60006020820190506119a66000830184611982565b92915050565b600080fd5b6000819050919050565b6119c4816119b1565b81146119cf57600080fd5b50565b6000813590506119e1816119bb565b92915050565b6000602082840312156119fd576119fc6119ac565b5b6000611a0b848285016119d2565b91505092915050565b611a1d816119b1565b82525050565b6000602082019050611a386000830184611a14565b92915050565b611a478161193a565b8114611a5257600080fd5b50565b600081359050611a6481611a3e565b92915050565b600060208284031215611a8057611a7f6119ac565b5b6000611a8e84828501611a55565b91505092915050565b6000604082019050611aac6000830185611a14565b611ab96020830184611a14565b9392505050565b7f4e487b7100000000000000000000000000000000000000000000000000000000600052601160045260246000fd5b6000611afa826119b1565b9150611b05836119b1565b9250828202611b13816119b1565b91508282048414831517611b2a57611b29611ac0565b5b5092915050565b7f4e487b7100000000000000000000000000000000000000000000000000000000600052601260045260246000fd5b6000611b6b826119b1565b9150611b76836119b1565b925082611b8657611b85611b31565b5b828204905092915050565b6000611b9c826119b1565b9150611ba7836119b1565b9250828201905080821115611bbf57611bbe611ac0565b5b92915050565b6000611bd0826119b1565b9150611bdb836119b1565b9250828203905081811115611bf357611bf2611ac0565b5b92915050565b600082825260208201905092915050565b7f4e6f7420656e6f75676820746f6b656e7320696e20706f6f6c00000000000000600082015250565b6000611c40601983611bf9565b9150611c4b82611c0a565b602082019050919050565b60006020820190508181036000830152611c6f81611c33565b9050919050565b60008160011c9050919050565b6000808291508390505b6001851115611ccd57808604811115611ca957611ca8611ac0565b5b6001851615611cb85780820291505b8081029050611cc685611c76565b9450611c8d565b94509492505050565b600082611ce65760019050611da2565b81611cf45760009050611da2565b8160018114611d0a5760028114611d1457611d43565b6001915050611da2565b60ff841115611d2657611d25611ac0565b5b8360020a915084821115611d3d57611d3c611ac0565b5b50611da2565b5060208310610133831016604e8410600b8410161715611d785782820a905083811115611d7357611d72611ac0565b5b611da2565b611d858484846001611c83565b92509050818404811115611d9c57611d9b611ac0565b5b81810290505b9392505050565b600060ff82169050919050565b6000611dc1826119b1565b9150611dcc83611da9565b9250611df97fffffffffffffffffffffffffffffffffffffffffffffffffffffffffffffffff8484611cd6565b905092915050565b7f4f6e6c7920666163746f72790000000000000000000000000000000000000000600082015250565b6000611e37600c83611bf9565b9150611e4282611e01565b602082019050919050565b60006020820190508181036000830152611e6681611e2a565b9050919050565b7f416c726561647920736574000000000000000000000000000000000000000000600082015250565b6000611ea3600b83611bf9565b9150611eae82611e6d565b602082019050919050565b60006020820190508181036000830152611ed281611e96565b9050919050565b6000611ee4826119b1565b9150611eef836119b1565b9250611f1c7fffffffffffffffffffffffffffffffffffffffffffffffffffffffffffffffff8484611cd6565b905092915050565b7f506f6f6c206861732067726164756174656420746f2044455800000000000000600082015250565b6000611f5a601983611bf9565b9150611f6582611f24565b602082019050919050565b60006020820190508181036000830152611f8981611f4d565b9050919050565b7f4d617820737570706c7920726561636865640000000000000000000000000000600082015250565b6000611fc6601283611bf9565b9150611fd182611f90565b602082019050919050565b60006020820190508181036000830152611ff581611fb9565b9050919050565b7f496e76616c696420707572636861736520616d6f756e74000000000000000000600082015250565b6000612032601783611bf9565b915061203d82611ffc565b602082019050919050565b6000602082019050818103600083015261206181612025565b9050919050565b600081519050612077816119bb565b92915050565b60008060408385031215612094576120936119ac565b5b60006120a285828601612068565b92505060206120b385828601612068565b9150509250929050565b60006040820190506120d2600083018561194c565b6120df6020830184611a14565b9392505050565b6120ef81611976565b81146120fa57600080fd5b50565b60008151905061210c816120e6565b92915050565b600060208284031215612128576121276119ac565b5b6000612136848285016120fd565b91505092915050565b600060a082019050612154600083018861194c565b612161602083018761194c565b61216e6040830186611a14565b61217b6060830185611a14565b6121886080830184611a14565b9695505050505050565b6000602082840312156121a8576121a76119ac565b5b60006121b684828501612068565b91505092915050565b60006060820190506121d46000830186611a14565b6121e16020830185611a14565b6121ee6040830184611a14565b949350505050565b7f4f6e6c7920666163746f72792063616e20696e697469616c697a650000000000600082015250565b600061222c601b83611bf9565b9150612237826121f6565b602082019050919050565b6000602082019050818103600083015261225b8161221f565b9050919050565b7f416c726561647920696e697469616c697a656400000000000000000000000000600082015250565b6000612298601383611bf9565b91506122a382612262565b602082019050919050565b600060208201905081810360008301526122c78161228b565b9050919050565b7f4d7573742070726f7669646520696e697469616c206c69717569646974790000600082015250565b6000612304601e83611bf9565b915061230f826122ce565b602082019050919050565b60006020820190508181036000830152612333816122f7565b9050919050565b7f56657374696e6720636f6e7472616374206e6f74207365740000000000000000600082015250565b6000612370601883611bf9565b915061237b8261233a565b602082019050919050565b6000602082019050818103600083015261239f81612363565b9050919050565b7f5472656173757279206e6f742073657400000000000000000000000000000000600082015250565b60006123dc601083611bf9565b91506123e7826123a6565b602082019050919050565b6000602082019050818103600083015261240b816123cf565b9050919050565b7f43616e206f6e6c792073656c6c2061667465722067726164756174696f6e206f60008201527f7220636c61696d2076657374656420746f6b656e730000000000000000000000602082015250565b600061246e603583611bf9565b915061247982612412565b604082019050919050565b6000602082019050818103600083015261249d81612461565b9050919050565b7f496e76616c69642073616c6520616d6f756e7400000000000000000000000000600082015250565b60006124da601383611bf9565b91506124e5826124a4565b602082019050919050565b60006020820190508181036000830152612509816124cd565b9050919050565b6000606082019050612525600083018661194c565b612532602083018561194c565b61253f6040830184611a14565b949350505050565b7f5472616e73666572206661696c65640000000000000000000000000000000000600082015250565b600061257d600f83611bf9565b915061258882612547565b602082019050919050565b600060208201905081810360008301526125ac81612570565b905091905056fea26469706673582212203fc40cf6bea1009b978e224e66fe9f3efdc81c61df885617628632203d64a20364736f6c63430008140033",
  "linkReferences": {},
  "deployedLinkReferences": {}
}