{
  "_format": "hh-sol-artifact-1",
  "contractName": "BondingCurvePool",
  "sourceName": "contracts/BondingCurvePool.sol",
  "abi": [
    {
      "inputs": [
        {
          "internalType": "address",
          "name": "_token",
          "type": "address"
        }
      ],
      "stateMutability": "nonpayable",
      "type": "constructor"
    },
    {
      "inputs": [],
      "name": "ReentrancyGuardReentrantCall",
      "type": "error"
    },
    {
      "anonymous": false,
      "inputs": [
        {
          "indexed": true,
          "internalType": "address",
          "name": "buyer",
          "type": "address"
        },
        {
          "indexed": false,
          "internalType": "uint256",
          "name": "ethAmount",
          "type": "uint256"
        },
        {
          "indexed": false,
          "internalType": "uint256",
          "name": "tokenAmount",
          "type": "uint256"
        }
      ],
      "name": "Bought",
      "type": "event"
    },
    {
      "anonymous": false,
      "inputs": [
        {
          "indexed": true,
          "internalType": "address",
          "name": "creator",
          "type": "address"
        },
        {
          "indexed": false,
          "internalType": "uint256",
          "name": "ethAmount",
          "type": "uint256"
        }
      ],
      "name": "Initialized",
      "type": "event"
    },
    {
      "anonymous": false,
      "inputs": [
        {
          "indexed": true,
          "internalType": "address",
          "name": "seller",
          "type": "address"
        },
        {
          "indexed": false,
          "internalType": "uint256",
          "name": "ethAmount",
          "type": "uint256"
        },
        {
          "indexed": false,
          "internalType": "uint256",
          "name": "tokenAmount",
          "type": "uint256"
        }
      ],
      "name": "Sold",
      "type": "event"
    },
    {
      "inputs": [],
      "name": "CURVE_EXPONENT",
      "outputs": [
        {
          "internalType": "uint256",
          "name": "",
          "type": "uint256"
        }
      ],
      "stateMutability": "view",
      "type": "function"
    },
    {
      "inputs": [],
      "name": "INITIAL_PRICE",
      "outputs": [
        {
          "internalType": "uint256",
          "name": "",
          "type": "uint256"
        }
      ],
      "stateMutability": "view",
      "type": "function"
    },
    {
      "inputs": [],
      "name": "buy",
      "outputs": [],
      "stateMutability": "payable",
      "type": "function"
    },
    {
      "inputs": [
        {
          "internalType": "uint256",
          "name": "ethAmount",
          "type": "uint256"
        }
      ],
      "name": "calculatePurchaseReturn",
      "outputs": [
        {
          "internalType": "uint256",
          "name": "",
          "type": "uint256"
        }
      ],
      "stateMutability": "view",
      "type": "function"
    },
    {
      "inputs": [
        {
          "internalType": "uint256",
          "name": "tokenAmount",
          "type": "uint256"
        }
      ],
      "name": "calculateSaleReturn",
      "outputs": [
        {
          "internalType": "uint256",
          "name": "",
          "type": "uint256"
        }
      ],
      "stateMutability": "view",
      "type": "function"
    },
    {
      "inputs": [],
      "name": "currentPrice",
      "outputs": [
        {
          "internalType": "uint256",
          "name": "",
          "type": "uint256"
        }
      ],
      "stateMutability": "view",
      "type": "function"
    },
    {
      "inputs": [],
      "name": "factory",
      "outputs": [
        {
          "internalType": "address",
          "name": "",
          "type": "address"
        }
      ],
      "stateMutability": "view",
      "type": "function"
    },
    {
      "inputs": [
        {
          "internalType": "address",
          "name": "creator",
          "type": "address"
        }
      ],
      "name": "initialize",
      "outputs": [],
      "stateMutability": "payable",
      "type": "function"
    },
    {
      "inputs": [],
      "name": "initialized",
      "outputs": [
        {
          "internalType": "bool",
          "name": "",
          "type": "bool"
        }
      ],
      "stateMutability": "view",
      "type": "function"
    },
    {
      "inputs": [],
      "name": "reserveBalance",
      "outputs": [
        {
          "internalType": "uint256",
          "name": "",
          "type": "uint256"
        }
      ],
      "stateMutability": "view",
      "type": "function"
    },
    {
      "inputs": [
        {
          "internalType": "uint256",
          "name": "tokenAmount",
          "type": "uint256"
        }
      ],
      "name": "sell",
      "outputs": [],
      "stateMutability": "nonpayable",
      "type": "function"
    },
    {
      "inputs": [],
      "name": "token",
      "outputs": [
        {
          "internalType": "address",
          "name": "",
          "type": "address"
        }
      ],
      "stateMutability": "view",
      "type": "function"
    },
    {
      "inputs": [],
      "name": "tokenSupply",
      "outputs": [
        {
          "internalType": "uint256",
          "name": "",
          "type": "uint256"
        }
      ],
      "stateMutability": "view",
      "type": "function"
    }
  ],
  "bytecode": "0x60806040523480156200001157600080fd5b506040516200168638038062001686833981810160405281019062000037919062000132565b600160008190555080600160006101000a81548173ffffffffffffffffffffffffffffffffffffffff021916908373ffffffffffffffffffffffffffffffffffffffff16021790555033600260006101000a81548173ffffffffffffffffffffffffffffffffffffffff021916908373ffffffffffffffffffffffffffffffffffffffff1602179055505062000164565b600080fd5b600073ffffffffffffffffffffffffffffffffffffffff82169050919050565b6000620000fa82620000cd565b9050919050565b6200010c81620000ed565b81146200011857600080fd5b50565b6000815190506200012c8162000101565b92915050565b6000602082840312156200014b576200014a620000c8565b5b60006200015b848285016200011b565b91505092915050565b61151280620001746000396000f3fe6080604052600436106100c25760003560e01c8063a10954fe1161007f578063c4d66de811610059578063c4d66de81461024d578063d701d1c814610269578063e4849b3214610294578063fc0c546a146102bd576100c2565b8063a10954fe146101ed578063a6f2ae3a14610218578063c45a015514610222576100c2565b8063158ef93e146100c7578063322d2100146100f257806369fcd4ac1461012f5780637824407f1461016c5780637c5e2795146101975780639d1b464a146101c2575b600080fd5b3480156100d357600080fd5b506100dc6102e8565b6040516100e99190610bd2565b60405180910390f35b3480156100fe57600080fd5b5061011960048036038101906101149190610c28565b6102fb565b6040516101269190610c64565b60405180910390f35b34801561013b57600080fd5b5061015660048036038101906101519190610c28565b6103a3565b6040516101639190610c64565b60405180910390f35b34801561017857600080fd5b50610181610463565b60405161018e9190610c64565b60405180910390f35b3480156101a357600080fd5b506101ac610469565b6040516101b99190610c64565b60405180910390f35b3480156101ce57600080fd5b506101d7610473565b6040516101e49190610c64565b60405180910390f35b3480156101f957600080fd5b506102026104dd565b60405161020f9190610c64565b60405180910390f35b6102206104e3565b005b34801561022e57600080fd5b506102376106a7565b6040516102449190610cc0565b60405180910390f35b61026760048036038101906102629190610d07565b6106cd565b005b34801561027557600080fd5b5061027e61086b565b60405161028b9190610c64565b60405180910390f35b3480156102a057600080fd5b506102bb60048036038101906102b69190610c28565b610870565b005b3480156102c957600080fd5b506102d2610ae4565b6040516102df9190610cc0565b60405180910390f35b600560009054906101000a900460ff1681565b600080600454036103415761033a655af3107a40006ec097ce7bc90715b34b9f10000000008461032b9190610d63565b6103359190610dd4565b610b0a565b905061039e565b6000826003546103519190610e05565b90506000610389655af3107a40006ec097ce7bc90715b34b9f10000000008461037a9190610d63565b6103849190610dd4565b610b0a565b9050600454816103999190610e39565b925050505b919050565b60006004548211156103ea576040517f08c379a00000000000000000000000000000000000000000000000000000000081526004016103e190610eca565b60405180910390fd5b6000600454036103fd576000905061045e565b60008260045461040d9190610e39565b905060006ec097ce7bc90715b34b9f1000000000655af3107a4000600284610435919061102a565b61043f9190610d63565b6104499190610dd4565b9050806003546104599190610e39565b925050505b919050565b60045481565b655af3107a400081565b6000806004540361048c57655af3107a400090506104da565b6001600261049a9190610e39565b670de0b6b3a76400006104ad9190611075565b60026004546104bc9190611075565b655af3107a40006104cd9190610d63565b6104d79190610dd4565b90505b90565b60035481565b6104eb610b67565b60006104f6346102fb565b90506000811161053b576040517f08c379a00000000000000000000000000000000000000000000000000000000081526004016105329061110c565b60405180910390fd5b346003600082825461054d9190610e05565b9250508190555080600460008282546105669190610e05565b92505081905550600160009054906101000a900473ffffffffffffffffffffffffffffffffffffffff1673ffffffffffffffffffffffffffffffffffffffff1663a9059cbb33836040518363ffffffff1660e01b81526004016105ca92919061112c565b6020604051808303816000875af11580156105e9573d6000803e3d6000fd5b505050506040513d601f19601f8201168201806040525081019061060d9190611181565b61064c576040517f08c379a0000000000000000000000000000000000000000000000000000000008152600401610643906111fa565b60405180910390fd5b3373ffffffffffffffffffffffffffffffffffffffff167fa9a40dec7a304e5915d11358b968c1e8d365992abf20f82285d1df1b30c8e24c348360405161069492919061121a565b60405180910390a2506106a5610bad565b565b600260009054906101000a900473ffffffffffffffffffffffffffffffffffffffff1681565b600260009054906101000a900473ffffffffffffffffffffffffffffffffffffffff1673ffffffffffffffffffffffffffffffffffffffff163373ffffffffffffffffffffffffffffffffffffffff161461075d576040517f08c379a00000000000000000000000000000000000000000000000000000000081526004016107549061128f565b60405180910390fd5b600560009054906101000a900460ff16156107ad576040517f08c379a00000000000000000000000000000000000000000000000000000000081526004016107a4906112fb565b60405180910390fd5b600034116107f0576040517f08c379a00000000000000000000000000000000000000000000000000000000081526004016107e790611367565b60405180910390fd5b3460038190555060006004819055506001600560006101000a81548160ff0219169083151502179055508073ffffffffffffffffffffffffffffffffffffffff167f25ff68dd81b34665b5ba7e553ee5511bf6812e12adb4a7e2c0d9e26b3099ce79346040516108609190610c64565b60405180910390a250565b600281565b610878610b67565b6000610883826103a3565b9050600081116108c8576040517f08c379a00000000000000000000000000000000000000000000000000000000081526004016108bf906113d3565b60405180910390fd5b80600360008282546108da9190610e39565b9250508190555081600460008282546108f39190610e39565b9250508190555060003373ffffffffffffffffffffffffffffffffffffffff168260405161092090611424565b60006040518083038185875af1925050503d806000811461095d576040519150601f19603f3d011682016040523d82523d6000602084013e610962565b606091505b50509050806109a6576040517f08c379a000000000000000000000000000000000000000000000000000000000815260040161099d90611485565b60405180910390fd5b600160009054906101000a900473ffffffffffffffffffffffffffffffffffffffff1673ffffffffffffffffffffffffffffffffffffffff166323b872dd3330866040518463ffffffff1660e01b8152600401610a05939291906114a5565b6020604051808303816000875af1158015610a24573d6000803e3d6000fd5b505050506040513d601f19601f82011682018060405250810190610a489190611181565b610a87576040517f08c379a0000000000000000000000000000000000000000000000000000000008152600401610a7e906111fa565b60405180910390fd5b3373ffffffffffffffffffffffffffffffffffffffff167fbac9694ac0daa55169abd117086fe32c89401d9a3b15dd1d34e55e0aa4e47a9d8385604051610acf92919061121a565b60405180910390a25050610ae1610bad565b50565b600160009054906101000a900473ffffffffffffffffffffffffffffffffffffffff1681565b6000806002600184610b1c9190610e05565b610b269190610dd4565b90508291505b81811015610b61578091506002818285610b469190610dd4565b610b509190610e05565b610b5a9190610dd4565b9050610b2c565b50919050565b600260005403610ba3576040517f3ee5aeb500000000000000000000000000000000000000000000000000000000815260040160405180910390fd5b6002600081905550565b6001600081905550565b60008115159050919050565b610bcc81610bb7565b82525050565b6000602082019050610be76000830184610bc3565b92915050565b600080fd5b6000819050919050565b610c0581610bf2565b8114610c1057600080fd5b50565b600081359050610c2281610bfc565b92915050565b600060208284031215610c3e57610c3d610bed565b5b6000610c4c84828501610c13565b91505092915050565b610c5e81610bf2565b82525050565b6000602082019050610c796000830184610c55565b92915050565b600073ffffffffffffffffffffffffffffffffffffffff82169050919050565b6000610caa82610c7f565b9050919050565b610cba81610c9f565b82525050565b6000602082019050610cd56000830184610cb1565b92915050565b610ce481610c9f565b8114610cef57600080fd5b50565b600081359050610d0181610cdb565b92915050565b600060208284031215610d1d57610d1c610bed565b5b6000610d2b84828501610cf2565b91505092915050565b7f4e487b7100000000000000000000000000000000000000000000000000000000600052601160045260246000fd5b6000610d6e82610bf2565b9150610d7983610bf2565b9250828202610d8781610bf2565b91508282048414831517610d9e57610d9d610d34565b5b5092915050565b7f4e487b7100000000000000000000000000000000000000000000000000000000600052601260045260246000fd5b6000610ddf82610bf2565b9150610dea83610bf2565b925082610dfa57610df9610da5565b5b828204905092915050565b6000610e1082610bf2565b9150610e1b83610bf2565b9250828201905080821115610e3357610e32610d34565b5b92915050565b6000610e4482610bf2565b9150610e4f83610bf2565b9250828203905081811115610e6757610e66610d34565b5b92915050565b600082825260208201905092915050565b7f4e6f7420656e6f75676820746f6b656e7320696e20706f6f6c00000000000000600082015250565b6000610eb4601983610e6d565b9150610ebf82610e7e565b602082019050919050565b60006020820190508181036000830152610ee381610ea7565b9050919050565b60008160011c9050919050565b6000808291508390505b6001851115610f4157808604811115610f1d57610f1c610d34565b5b6001851615610f2c5780820291505b8081029050610f3a85610eea565b9450610f01565b94509492505050565b600082610f5a5760019050611016565b81610f685760009050611016565b8160018114610f7e5760028114610f8857610fb7565b6001915050611016565b60ff841115610f9a57610f99610d34565b5b8360020a915084821115610fb157610fb0610d34565b5b50611016565b5060208310610133831016604e8410600b8410161715610fec5782820a905083811115610fe757610fe6610d34565b5b611016565b610ff98484846001610ef7565b925090508184048111156110105761100f610d34565b5b81810290505b9392505050565b600060ff82169050919050565b600061103582610bf2565b91506110408361101d565b925061106d7fffffffffffffffffffffffffffffffffffffffffffffffffffffffffffffffff8484610f4a565b905092915050565b600061108082610bf2565b915061108b83610bf2565b92506110b87fffffffffffffffffffffffffffffffffffffffffffffffffffffffffffffffff8484610f4a565b905092915050565b7f496e76616c696420707572636861736520616d6f756e74000000000000000000600082015250565b60006110f6601783610e6d565b9150611101826110c0565b602082019050919050565b60006020820190508181036000830152611125816110e9565b9050919050565b60006040820190506111416000830185610cb1565b61114e6020830184610c55565b9392505050565b61115e81610bb7565b811461116957600080fd5b50565b60008151905061117b81611155565b92915050565b60006020828403121561119757611196610bed565b5b60006111a58482850161116c565b91505092915050565b7f5472616e73666572206661696c65640000000000000000000000000000000000600082015250565b60006111e4600f83610e6d565b91506111ef826111ae565b602082019050919050565b60006020820190508181036000830152611213816111d7565b9050919050565b600060408201905061122f6000830185610c55565b61123c6020830184610c55565b9392505050565b7f4f6e6c7920666163746f72792063616e20696e697469616c697a650000000000600082015250565b6000611279601b83610e6d565b915061128482611243565b602082019050919050565b600060208201905081810360008301526112a88161126c565b9050919050565b7f416c726561647920696e697469616c697a656400000000000000000000000000600082015250565b60006112e5601383610e6d565b91506112f0826112af565b602082019050919050565b60006020820190508181036000830152611314816112d8565b9050919050565b7f4d7573742070726f7669646520696e697469616c206c69717569646974790000600082015250565b6000611351601e83610e6d565b915061135c8261131b565b602082019050919050565b6000602082019050818103600083015261138081611344565b9050919050565b7f496e76616c69642073616c6520616d6f756e7400000000000000000000000000600082015250565b60006113bd601383610e6d565b91506113c882611387565b602082019050919050565b600060208201905081810360008301526113ec816113b0565b9050919050565b600081905092915050565b50565b600061140e6000836113f3565b9150611419826113fe565b600082019050919050565b600061142f82611401565b9150819050919050565b7f455448207472616e73666572206661696c656400000000000000000000000000600082015250565b600061146f601383610e6d565b915061147a82611439565b602082019050919050565b6000602082019050818103600083015261149e81611462565b9050919050565b60006060820190506114ba6000830186610cb1565b6114c76020830185610cb1565b6114d46040830184610c55565b94935050505056fea2646970667358221220581a88a9ce210a3f1bc2e9668069e8837364da59f027c4e1ff490599a0736b8664736f6c63430008140033",
  "linkReferences": {},
  "deployedLinkReferences": {}
}