{
  "_format": "hh-sol-artifact-1",
  "contractName": "TokenFactory",
  "sourceName": "contracts/TokenFactory.sol",
  "abi": [
    {
      "inputs": [],
      "stateMutability": "nonpayable",
      "type": "constructor"
    },
    {
      "inputs": [
        {
          "internalType": "address",
          "name": "owner",
          "type": "address"
        }
      ],
      "name": "OwnableInvalidOwner",
      "type": "error"
    },
    {
      "inputs": [
        {
          "internalType": "address",
          "name": "account",
          "type": "address"
        }
      ],
      "name": "OwnableUnauthorizedAccount",
      "type": "error"
    },
    {
      "anonymous": false,
      "inputs": [
        {
          "indexed": true,
          "internalType": "address",
          "name": "previousOwner",
          "type": "address"
        },
        {
          "indexed": true,
          "internalType": "address",
          "name": "newOwner",
          "type": "address"
        }
      ],
      "name": "OwnershipTransferred",
      "type": "event"
    },
    {
      "anonymous": false,
      "inputs": [
        {
          "indexed": true,
          "internalType": "address",
          "name": "token",
          "type": "address"
        },
        {
          "indexed": true,
          "internalType": "address",
          "name": "creator",
          "type": "address"
        },
        {
          "indexed": false,
          "internalType": "address",
          "name": "pool",
          "type": "address"
        },
        {
          "indexed": false,
          "internalType": "uint256",
          "name": "maxSupply",
          "type": "uint256"
        }
      ],
      "name": "TokenCreated",
      "type": "event"
    },
    {
      "anonymous": false,
      "inputs": [
        {
          "indexed": true,
          "internalType": "address",
          "name": "treasury",
          "type": "address"
        }
      ],
      "name": "TreasurySet",
      "type": "event"
    },
    {
      "anonymous": false,
      "inputs": [
        {
          "indexed": true,
          "internalType": "address",
          "name": "vestingContract",
          "type": "address"
        }
      ],
      "name": "VestingContractDeployed",
      "type": "event"
    },
    {
      "inputs": [],
      "name": "DEFAULT_MAX_SUPPLY",
      "outputs": [
        {
          "internalType": "uint256",
          "name": "",
          "type": "uint256"
        }
      ],
      "stateMutability": "view",
      "type": "function"
    },
    {
      "inputs": [],
      "name": "MIN_INITIAL_LIQUIDITY",
      "outputs": [
        {
          "internalType": "uint256",
          "name": "",
          "type": "uint256"
        }
      ],
      "stateMutability": "view",
      "type": "function"
    },
    {
      "inputs": [
        {
          "internalType": "uint256",
          "name": "",
          "type": "uint256"
        }
      ],
      "name": "allTokens",
      "outputs": [
        {
          "internalType": "address",
          "name": "",
          "type": "address"
        }
      ],
      "stateMutability": "view",
      "type": "function"
    },
    {
      "inputs": [
        {
          "internalType": "string",
          "name": "name",
          "type": "string"
        },
        {
          "internalType": "string",
          "name": "symbol",
          "type": "string"
        },
        {
          "internalType": "uint256",
          "name": "initialSupply",
          "type": "uint256"
        },
        {
          "internalType": "uint256",
          "name": "initialLiquidityETH",
          "type": "uint256"
        }
      ],
      "name": "createTokenWithLiquidity",
      "outputs": [
        {
          "internalType": "address",
          "name": "",
          "type": "address"
        }
      ],
      "stateMutability": "payable",
      "type": "function"
    },
    {
      "inputs": [],
      "name": "getAllTokens",
      "outputs": [
        {
          "internalType": "address[]",
          "name": "",
          "type": "address[]"
        }
      ],
      "stateMutability": "view",
      "type": "function"
    },
    {
      "inputs": [
        {
          "internalType": "address",
          "name": "token",
          "type": "address"
        }
      ],
      "name": "getPoolForToken",
      "outputs": [
        {
          "internalType": "address",
          "name": "",
          "type": "address"
        }
      ],
      "stateMutability": "view",
      "type": "function"
    },
    {
      "inputs": [],
      "name": "getTreasury",
      "outputs": [
        {
          "internalType": "address",
          "name": "",
          "type": "address"
        }
      ],
      "stateMutability": "view",
      "type": "function"
    },
    {
      "inputs": [],
      "name": "getVestingContract",
      "outputs": [
        {
          "internalType": "address",
          "name": "",
          "type": "address"
        }
      ],
      "stateMutability": "view",
      "type": "function"
    },
    {
      "inputs": [],
      "name": "owner",
      "outputs": [
        {
          "internalType": "address",
          "name": "",
          "type": "address"
        }
      ],
      "stateMutability": "view",
      "type": "function"
    },
    {
      "inputs": [],
      "name": "renounceOwnership",
      "outputs": [],
      "stateMutability": "nonpayable",
      "type": "function"
    },
    {
      "inputs": [
        {
          "internalType": "address",
          "name": "_treasury",
          "type": "address"
        }
      ],
      "name": "setTreasury",
      "outputs": [],
      "stateMutability": "nonpayable",
      "type": "function"
    },
    {
      "inputs": [
        {
          "internalType": "address",
          "name": "",
          "type": "address"
        }
      ],
      "name": "tokenToPool",
      "outputs": [
        {
          "internalType": "address",
          "name": "",
          "type": "address"
        }
      ],
      "stateMutability": "view",
      "type": "function"
    },
    {
      "inputs": [
        {
          "internalType": "address",
          "name": "newOwner",
          "type": "address"
        }
      ],
      "name": "transferOwnership",
      "outputs": [],
      "stateMutability": "nonpayable",
      "type": "function"
    },
    {
      "inputs": [],
      "name": "treasury",
      "outputs": [
        {
          "internalType": "address",
          "name": "",
          "type": "address"
        }
      ],
      "stateMutability": "view",
      "type": "function"
    },
    {
      "inputs": [],
      "name": "vestingContract",
      "outputs": [
        {
          "internalType": "address",
          "name": "",
          "type": "address"
        }
      ],
      "stateMutability": "view",
      "type": "function"
    }
  ],
  "bytecode": "0x60806040523480156200001157600080fd5b5033600073ffffffffffffffffffffffffffffffffffffffff168173ffffffffffffffffffffffffffffffffffffffff1603620000885760006040517f1e4fbdf70000000000000000000000000000000000000000000000000000000081526004016200007f919062000288565b60405180910390fd5b62000099816200017160201b60201c565b50604051620000a89062000235565b604051809103906000f080158015620000c5573d6000803e3d6000fd5b50600360006101000a81548173ffffffffffffffffffffffffffffffffffffffff021916908373ffffffffffffffffffffffffffffffffffffffff160217905550600360009054906101000a900473ffffffffffffffffffffffffffffffffffffffff1673ffffffffffffffffffffffffffffffffffffffff167f39628dbf64c69cddaaabcf98f184e6b3379ed0f14464bd97bce5e10817ce429c60405160405180910390a2620002a5565b60008060009054906101000a900473ffffffffffffffffffffffffffffffffffffffff169050816000806101000a81548173ffffffffffffffffffffffffffffffffffffffff021916908373ffffffffffffffffffffffffffffffffffffffff1602179055508173ffffffffffffffffffffffffffffffffffffffff168173ffffffffffffffffffffffffffffffffffffffff167f8be0079c531659141344cd1fd0a4f28419497f9722a3daafe3b4186f6b6457e060405160405180910390a35050565b612a798062005f8a83390190565b600073ffffffffffffffffffffffffffffffffffffffff82169050919050565b6000620002708262000243565b9050919050565b620002828162000263565b82525050565b60006020820190506200029f600083018462000277565b92915050565b615cd580620002b56000396000f3fe608060405260043610620000fe5760003560e01c8063715018a611620000975780639f9ecd4311620000615780639f9ecd431462000339578063db39b6c5146200036f578063f0f44260146200039f578063f2fde38b14620003cd57620000fe565b8063715018a6146200027b578063728780fa14620002955780638da5cb5b14620002c5578063989796b514620002f557620000fe565b80633b19e84a11620000d95780633b19e84a14620001a75780635e6f604514620001d757806361d027b31462000207578063634282af146200023757620000fe565b806304856cb31462000103578063255bfbcc14620001335780632a5c792a1462000177575b600080fd5b3480156200011057600080fd5b506200011b620003fb565b6040516200012a919062001254565b60405180910390f35b3480156200014057600080fd5b506200015f6004803603810190620001599190620012e0565b6200040b565b6040516200016e919062001323565b60405180910390f35b3480156200018457600080fd5b506200018f62000474565b6040516200019e91906200140e565b60405180910390f35b348015620001b457600080fd5b50620001bf62000504565b604051620001ce919062001323565b60405180910390f35b348015620001e457600080fd5b50620001ef6200052e565b604051620001fe919062001323565b60405180910390f35b3480156200021457600080fd5b506200021f62000554565b6040516200022e919062001323565b60405180910390f35b3480156200024457600080fd5b506200026360048036038101906200025d919062001463565b6200057a565b60405162000272919062001323565b60405180910390f35b3480156200028857600080fd5b5062000293620005ba565b005b348015620002a257600080fd5b50620002ad620005d2565b604051620002bc919062001254565b60405180910390f35b348015620002d257600080fd5b50620002dd620005dd565b604051620002ec919062001323565b60405180910390f35b3480156200030257600080fd5b506200032160048036038101906200031b9190620012e0565b62000606565b60405162000330919062001323565b60405180910390f35b62000357600480360381019062000351919062001503565b62000639565b60405162000366919062001323565b60405180910390f35b3480156200037c57600080fd5b506200038762000f07565b60405162000396919062001323565b60405180910390f35b348015620003ac57600080fd5b50620003cb6004803603810190620003c59190620012e0565b62000f31565b005b348015620003da57600080fd5b50620003f96004803603810190620003f39190620012e0565b62001034565b005b6b033b2e3c9fd0803ce800000081565b6000600260008373ffffffffffffffffffffffffffffffffffffffff1673ffffffffffffffffffffffffffffffffffffffff16815260200190815260200160002060009054906101000a900473ffffffffffffffffffffffffffffffffffffffff169050919050565b60606001805480602002602001604051908101604052809291908181526020018280548015620004fa57602002820191906000526020600020905b8160009054906101000a900473ffffffffffffffffffffffffffffffffffffffff1673ffffffffffffffffffffffffffffffffffffffff1681526020019060010190808311620004af575b5050505050905090565b6000600460009054906101000a900473ffffffffffffffffffffffffffffffffffffffff16905090565b600360009054906101000a900473ffffffffffffffffffffffffffffffffffffffff1681565b600460009054906101000a900473ffffffffffffffffffffffffffffffffffffffff1681565b600181815481106200058b57600080fd5b906000526020600020016000915054906101000a900473ffffffffffffffffffffffffffffffffffffffff1681565b620005c4620010c1565b620005d0600062001151565b565b662386f26fc1000081565b60008060009054906101000a900473ffffffffffffffffffffffffffffffffffffffff16905090565b60026020528060005260406000206000915054906101000a900473ffffffffffffffffffffffffffffffffffffffff1681565b60008134101562000681576040517f08c379a000000000000000000000000000000000000000000000000000000000815260040162000678906200161c565b60405180910390fd5b662386f26fc10000821015620006ce576040517f08c379a0000000000000000000000000000000000000000000000000000000008152600401620006c5906200168e565b60405180910390fd5b600073ffffffffffffffffffffffffffffffffffffffff16600360009054906101000a900473ffffffffffffffffffffffffffffffffffffffff1673ffffffffffffffffffffffffffffffffffffffff160362000762576040517f08c379a0000000000000000000000000000000000000000000000000000000008152600401620007599062001700565b60405180910390fd5b600073ffffffffffffffffffffffffffffffffffffffff16600460009054906101000a900473ffffffffffffffffffffffffffffffffffffffff1673ffffffffffffffffffffffffffffffffffffffff1603620007f6576040517f08c379a0000000000000000000000000000000000000000000000000000000008152600401620007ed9062001772565b60405180910390fd5b600087879050116200083f576040517f08c379a00000000000000000000000000000000000000000000000000000000081526004016200083690620017e4565b60405180910390fd5b6000858590501162000888576040517f08c379a00000000000000000000000000000000000000000000000000000000081526004016200087f9062001856565b60405180910390fd5b600060646050856200089b9190620018a7565b620008a7919062001921565b905060008888888888604051620008be906200121d565b620008ce959493929190620019ac565b604051809103906000f080158015620008eb573d6000803e3d6000fd5b5090506001819080600181540180825580915050600190039060005260206000200160009091909190916101000a81548173ffffffffffffffffffffffffffffffffffffffff021916908373ffffffffffffffffffffffffffffffffffffffff1602179055506000818360405162000963906200122b565b62000970929190620019fb565b604051809103906000f0801580156200098d573d6000803e3d6000fd5b50905080600260008473ffffffffffffffffffffffffffffffffffffffff1673ffffffffffffffffffffffffffffffffffffffff16815260200190815260200160002060006101000a81548173ffffffffffffffffffffffffffffffffffffffff021916908373ffffffffffffffffffffffffffffffffffffffff1602179055508073ffffffffffffffffffffffffffffffffffffffff166374991569600360009054906101000a900473ffffffffffffffffffffffffffffffffffffffff166040518263ffffffff1660e01b815260040162000a6b919062001323565b600060405180830381600087803b15801562000a8657600080fd5b505af115801562000a9b573d6000803e3d6000fd5b505050508073ffffffffffffffffffffffffffffffffffffffff1663f0f44260600460009054906101000a900473ffffffffffffffffffffffffffffffffffffffff166040518263ffffffff1660e01b815260040162000afc919062001323565b600060405180830381600087803b15801562000b1757600080fd5b505af115801562000b2c573d6000803e3d6000fd5b50505050600360009054906101000a900473ffffffffffffffffffffffffffffffffffffffff1673ffffffffffffffffffffffffffffffffffffffff1663c92163448260016040518363ffffffff1660e01b815260040162000b9092919062001a45565b600060405180830381600087803b15801562000bab57600080fd5b505af115801562000bc0573d6000803e3d6000fd5b505050508173ffffffffffffffffffffffffffffffffffffffff1663a9059cbb82856040518363ffffffff1660e01b815260040162000c01929190620019fb565b6020604051808303816000875af115801562000c21573d6000803e3d6000fd5b505050506040513d601f19601f8201168201806040525081019062000c47919062001aa3565b506000838762000c58919062001ad5565b9050600081111562000ce9578273ffffffffffffffffffffffffffffffffffffffff1663a9059cbb33836040518363ffffffff1660e01b815260040162000ca1929190620019fb565b6020604051808303816000875af115801562000cc1573d6000803e3d6000fd5b505050506040513d601f19601f8201168201806040525081019062000ce7919062001aa3565b505b60008273ffffffffffffffffffffffffffffffffffffffff16873360405160240162000d16919062001323565b6040516020818303038152906040527fc4d66de8000000000000000000000000000000000000000000000000000000007bffffffffffffffffffffffffffffffffffffffffffffffffffffffff19166020820180517bffffffffffffffffffffffffffffffffffffffffffffffffffffffff838183161783525050505060405162000da2919062001b89565b60006040518083038185875af1925050503d806000811462000de1576040519150601f19603f3d011682016040523d82523d6000602084013e62000de6565b606091505b505090508062000e2d576040517f08c379a000000000000000000000000000000000000000000000000000000000815260040162000e249062001bf2565b60405180910390fd5b8634111562000e8c573373ffffffffffffffffffffffffffffffffffffffff166108fc883462000e5e919062001ad5565b9081150290604051600060405180830381858888f1935050505015801562000e8a573d6000803e3d6000fd5b505b3373ffffffffffffffffffffffffffffffffffffffff168473ffffffffffffffffffffffffffffffffffffffff167f71fc7051f6ff796b0915a433ad35f46d780c8a1a8251ab26bee71fb838abab90858860405162000eed929190620019fb565b60405180910390a383955050505050509695505050505050565b6000600360009054906101000a900473ffffffffffffffffffffffffffffffffffffffff16905090565b62000f3b620010c1565b600073ffffffffffffffffffffffffffffffffffffffff168173ffffffffffffffffffffffffffffffffffffffff160362000fad576040517f08c379a000000000000000000000000000000000000000000000000000000000815260040162000fa49062001c64565b60405180910390fd5b80600460006101000a81548173ffffffffffffffffffffffffffffffffffffffff021916908373ffffffffffffffffffffffffffffffffffffffff1602179055508073ffffffffffffffffffffffffffffffffffffffff167f3c864541ef71378c6229510ed90f376565ee42d9c5e0904a984a9e863e6db44f60405160405180910390a250565b6200103e620010c1565b600073ffffffffffffffffffffffffffffffffffffffff168173ffffffffffffffffffffffffffffffffffffffff1603620010b35760006040517f1e4fbdf7000000000000000000000000000000000000000000000000000000008152600401620010aa919062001323565b60405180910390fd5b620010be8162001151565b50565b620010cb62001215565b73ffffffffffffffffffffffffffffffffffffffff16620010eb620005dd565b73ffffffffffffffffffffffffffffffffffffffff16146200114f576200111162001215565b6040517f118cdaa700000000000000000000000000000000000000000000000000000000815260040162001146919062001323565b60405180910390fd5b565b60008060009054906101000a900473ffffffffffffffffffffffffffffffffffffffff169050816000806101000a81548173ffffffffffffffffffffffffffffffffffffffff021916908373ffffffffffffffffffffffffffffffffffffffff1602179055508173ffffffffffffffffffffffffffffffffffffffff168173ffffffffffffffffffffffffffffffffffffffff167f8be0079c531659141344cd1fd0a4f28419497f9722a3daafe3b4186f6b6457e060405160405180910390a35050565b600033905090565b6118648062001c8783390190565b6127b580620034eb83390190565b6000819050919050565b6200124e8162001239565b82525050565b60006020820190506200126b600083018462001243565b92915050565b600080fd5b600080fd5b600073ffffffffffffffffffffffffffffffffffffffff82169050919050565b6000620012a8826200127b565b9050919050565b620012ba816200129b565b8114620012c657600080fd5b50565b600081359050620012da81620012af565b92915050565b600060208284031215620012f957620012f862001271565b5b60006200130984828501620012c9565b91505092915050565b6200131d816200129b565b82525050565b60006020820190506200133a600083018462001312565b92915050565b600081519050919050565b600082825260208201905092915050565b6000819050602082019050919050565b62001377816200129b565b82525050565b60006200138b83836200136c565b60208301905092915050565b6000602082019050919050565b6000620013b18262001340565b620013bd81856200134b565b9350620013ca836200135c565b8060005b8381101562001401578151620013e588826200137d565b9750620013f28362001397565b925050600181019050620013ce565b5085935050505092915050565b600060208201905081810360008301526200142a8184620013a4565b905092915050565b6200143d8162001239565b81146200144957600080fd5b50565b6000813590506200145d8162001432565b92915050565b6000602082840312156200147c576200147b62001271565b5b60006200148c848285016200144c565b91505092915050565b600080fd5b600080fd5b600080fd5b60008083601f840112620014bd57620014bc62001495565b5b8235905067ffffffffffffffff811115620014dd57620014dc6200149a565b5b602083019150836001820283011115620014fc57620014fb6200149f565b5b9250929050565b6000806000806000806080878903121562001523576200152262001271565b5b600087013567ffffffffffffffff81111562001544576200154362001276565b5b6200155289828a01620014a4565b9650965050602087013567ffffffffffffffff81111562001578576200157762001276565b5b6200158689828a01620014a4565b945094505060406200159b89828a016200144c565b9250506060620015ae89828a016200144c565b9150509295509295509295565b600082825260208201905092915050565b7f496e73756666696369656e74204554482073656e740000000000000000000000600082015250565b600062001604601583620015bb565b91506200161182620015cc565b602082019050919050565b600060208201905081810360008301526200163781620015f5565b9050919050565b7f496e697469616c206c697175696469747920746f6f206c6f7700000000000000600082015250565b600062001676601983620015bb565b915062001683826200163e565b602082019050919050565b60006020820190508181036000830152620016a98162001667565b9050919050565b7f56657374696e6720636f6e7472616374206e6f74207365740000000000000000600082015250565b6000620016e8601883620015bb565b9150620016f582620016b0565b602082019050919050565b600060208201905081810360008301526200171b81620016d9565b9050919050565b7f5472656173757279206e6f742073657400000000000000000000000000000000600082015250565b60006200175a601083620015bb565b9150620017678262001722565b602082019050919050565b600060208201905081810360008301526200178d816200174b565b9050919050565b7f4e616d652063616e6e6f7420626520656d707479000000000000000000000000600082015250565b6000620017cc601483620015bb565b9150620017d98262001794565b602082019050919050565b60006020820190508181036000830152620017ff81620017bd565b9050919050565b7f53796d626f6c2063616e6e6f7420626520656d70747900000000000000000000600082015250565b60006200183e601683620015bb565b91506200184b8262001806565b602082019050919050565b6000602082019050818103600083015262001871816200182f565b9050919050565b7f4e487b7100000000000000000000000000000000000000000000000000000000600052601160045260246000fd5b6000620018b48262001239565b9150620018c18362001239565b9250828202620018d18162001239565b91508282048414831517620018eb57620018ea62001878565b5b5092915050565b7f4e487b7100000000000000000000000000000000000000000000000000000000600052601260045260246000fd5b60006200192e8262001239565b91506200193b8362001239565b9250826200194e576200194d620018f2565b5b828204905092915050565b82818337600083830152505050565b6000601f19601f8301169050919050565b6000620019878385620015bb565b93506200199683858462001959565b620019a18362001968565b840190509392505050565b60006060820190508181036000830152620019c981878962001979565b90508181036020830152620019e081858762001979565b9050620019f1604083018462001243565b9695505050505050565b600060408201905062001a12600083018562001312565b62001a21602083018462001243565b9392505050565b60008115159050919050565b62001a3f8162001a28565b82525050565b600060408201905062001a5c600083018562001312565b62001a6b602083018462001a34565b9392505050565b62001a7d8162001a28565b811462001a8957600080fd5b50565b60008151905062001a9d8162001a72565b92915050565b60006020828403121562001abc5762001abb62001271565b5b600062001acc8482850162001a8c565b91505092915050565b600062001ae28262001239565b915062001aef8362001239565b925082820390508181111562001b0a5762001b0962001878565b5b92915050565b600081519050919050565b600081905092915050565b60005b8381101562001b4657808201518184015260208101905062001b29565b60008484015250505050565b600062001b5f8262001b10565b62001b6b818562001b1b565b935062001b7d81856020860162001b26565b80840191505092915050565b600062001b97828462001b52565b915081905092915050565b7f506f6f6c20696e697469616c697a6174696f6e206661696c6564000000000000600082015250565b600062001bda601a83620015bb565b915062001be78262001ba2565b602082019050919050565b6000602082019050818103600083015262001c0d8162001bcb565b9050919050565b7f496e76616c696420747265617375727900000000000000000000000000000000600082015250565b600062001c4c601083620015bb565b915062001c598262001c14565b602082019050919050565b6000602082019050818103600083015262001c7f8162001c3d565b905091905056fe60806040523480156200001157600080fd5b506040516200186438038062001864833981810160405281019062000037919062000505565b828281600390816200004a9190620007e0565b5080600490816200005c9190620007e0565b5050506200007133826200007a60201b60201c565b505050620009fe565b600073ffffffffffffffffffffffffffffffffffffffff168273ffffffffffffffffffffffffffffffffffffffff1603620000ef5760006040517fec442f05000000000000000000000000000000000000000000000000000000008152600401620000e691906200090c565b60405180910390fd5b62000103600083836200010760201b60201c565b5050565b600073ffffffffffffffffffffffffffffffffffffffff168373ffffffffffffffffffffffffffffffffffffffff16036200015d57806002600082825462000150919062000958565b9250508190555062000233565b60008060008573ffffffffffffffffffffffffffffffffffffffff1673ffffffffffffffffffffffffffffffffffffffff16815260200190815260200160002054905081811015620001ec578381836040517fe450d38c000000000000000000000000000000000000000000000000000000008152600401620001e393929190620009a4565b60405180910390fd5b8181036000808673ffffffffffffffffffffffffffffffffffffffff1673ffffffffffffffffffffffffffffffffffffffff16815260200190815260200160002081905550505b600073ffffffffffffffffffffffffffffffffffffffff168273ffffffffffffffffffffffffffffffffffffffff16036200027e5780600260008282540392505081905550620002cb565b806000808473ffffffffffffffffffffffffffffffffffffffff1673ffffffffffffffffffffffffffffffffffffffff168152602001908152602001600020600082825401925050819055505b8173ffffffffffffffffffffffffffffffffffffffff168373ffffffffffffffffffffffffffffffffffffffff167fddf252ad1be2c89b69c2b068fc378daa952ba7f163c4a11628f55a4df523b3ef836040516200032a9190620009e1565b60405180910390a3505050565b6000604051905090565b600080fd5b600080fd5b600080fd5b600080fd5b6000601f19601f8301169050919050565b7f4e487b7100000000000000000000000000000000000000000000000000000000600052604160045260246000fd5b620003a08262000355565b810181811067ffffffffffffffff82111715620003c257620003c162000366565b5b80604052505050565b6000620003d762000337565b9050620003e5828262000395565b919050565b600067ffffffffffffffff82111562000408576200040762000366565b5b620004138262000355565b9050602081019050919050565b60005b838110156200044057808201518184015260208101905062000423565b60008484015250505050565b6000620004636200045d84620003ea565b620003cb565b90508281526020810184848401111562000482576200048162000350565b5b6200048f84828562000420565b509392505050565b600082601f830112620004af57620004ae6200034b565b5b8151620004c18482602086016200044c565b91505092915050565b6000819050919050565b620004df81620004ca565b8114620004eb57600080fd5b50565b600081519050620004ff81620004d4565b92915050565b60008060006060848603121562000521576200052062000341565b5b600084015167ffffffffffffffff81111562000542576200054162000346565b5b620005508682870162000497565b935050602084015167ffffffffffffffff81111562000574576200057362000346565b5b620005828682870162000497565b92505060406200059586828701620004ee565b9150509250925092565b600081519050919050565b7f4e487b7100000000000000000000000000000000000000000000000000000000600052602260045260246000fd5b60006002820490506001821680620005f257607f821691505b602082108103620006085762000607620005aa565b5b50919050565b60008190508160005260206000209050919050565b60006020601f8301049050919050565b600082821b905092915050565b600060088302620006727fffffffffffffffffffffffffffffffffffffffffffffffffffffffffffffffff8262000633565b6200067e868362000633565b95508019841693508086168417925050509392505050565b6000819050919050565b6000620006c1620006bb620006b584620004ca565b62000696565b620004ca565b9050919050565b6000819050919050565b620006dd83620006a0565b620006f5620006ec82620006c8565b84845462000640565b825550505050565b600090565b6200070c620006fd565b62000719818484620006d2565b505050565b5b8181101562000741576200073560008262000702565b6001810190506200071f565b5050565b601f82111562000790576200075a816200060e565b620007658462000623565b8101602085101562000775578190505b6200078d620007848562000623565b8301826200071e565b50505b505050565b600082821c905092915050565b6000620007b56000198460080262000795565b1980831691505092915050565b6000620007d08383620007a2565b9150826002028217905092915050565b620007eb826200059f565b67ffffffffffffffff81111562000807576200080662000366565b5b620008138254620005d9565b6200082082828562000745565b600060209050601f83116001811462000858576000841562000843578287015190505b6200084f8582620007c2565b865550620008bf565b601f19841662000868866200060e565b60005b8281101562000892578489015182556001820191506020850194506020810190506200086b565b86831015620008b25784890151620008ae601f891682620007a2565b8355505b6001600288020188555050505b505050505050565b600073ffffffffffffffffffffffffffffffffffffffff82169050919050565b6000620008f482620008c7565b9050919050565b6200090681620008e7565b82525050565b6000602082019050620009236000830184620008fb565b92915050565b7f4e487b7100000000000000000000000000000000000000000000000000000000600052601160045260246000fd5b60006200096582620004ca565b91506200097283620004ca565b92508282019050808211156200098d576200098c62000929565b5b92915050565b6200099e81620004ca565b82525050565b6000606082019050620009bb6000830186620008fb565b620009ca602083018562000993565b620009d9604083018462000993565b949350505050565b6000602082019050620009f8600083018462000993565b92915050565b610e568062000a0e6000396000f3fe608060405234801561001057600080fd5b50600436106100935760003560e01c8063313ce56711610066578063313ce5671461013457806370a082311461015257806395d89b4114610182578063a9059cbb146101a0578063dd62ed3e146101d057610093565b806306fdde0314610098578063095ea7b3146100b657806318160ddd146100e657806323b872dd14610104575b600080fd5b6100a0610200565b6040516100ad9190610aaa565b60405180910390f35b6100d060048036038101906100cb9190610b65565b610292565b6040516100dd9190610bc0565b60405180910390f35b6100ee6102b5565b6040516100fb9190610bea565b60405180910390f35b61011e60048036038101906101199190610c05565b6102bf565b60405161012b9190610bc0565b60405180910390f35b61013c6102ee565b6040516101499190610c74565b60405180910390f35b61016c60048036038101906101679190610c8f565b6102f7565b6040516101799190610bea565b60405180910390f35b61018a61033f565b6040516101979190610aaa565b60405180910390f35b6101ba60048036038101906101b59190610b65565b6103d1565b6040516101c79190610bc0565b60405180910390f35b6101ea60048036038101906101e59190610cbc565b6103f4565b6040516101f79190610bea565b60405180910390f35b60606003805461020f90610d2b565b80601f016020809104026020016040519081016040528092919081815260200182805461023b90610d2b565b80156102885780601f1061025d57610100808354040283529160200191610288565b820191906000526020600020905b81548152906001019060200180831161026b57829003601f168201915b5050505050905090565b60008061029d61047b565b90506102aa818585610483565b600191505092915050565b6000600254905090565b6000806102ca61047b565b90506102d7858285610495565b6102e285858561052a565b60019150509392505050565b60006012905090565b60008060008373ffffffffffffffffffffffffffffffffffffffff1673ffffffffffffffffffffffffffffffffffffffff168152602001908152602001600020549050919050565b60606004805461034e90610d2b565b80601f016020809104026020016040519081016040528092919081815260200182805461037a90610d2b565b80156103c75780601f1061039c576101008083540402835291602001916103c7565b820191906000526020600020905b8154815290600101906020018083116103aa57829003601f168201915b5050505050905090565b6000806103dc61047b565b90506103e981858561052a565b600191505092915050565b6000600160008473ffffffffffffffffffffffffffffffffffffffff1673ffffffffffffffffffffffffffffffffffffffff16815260200190815260200160002060008373ffffffffffffffffffffffffffffffffffffffff1673ffffffffffffffffffffffffffffffffffffffff16815260200190815260200160002054905092915050565b600033905090565b610490838383600161061e565b505050565b60006104a184846103f4565b90507fffffffffffffffffffffffffffffffffffffffffffffffffffffffffffffffff8110156105245781811015610514578281836040517ffb8f41b200000000000000000000000000000000000000000000000000000000815260040161050b93929190610d6b565b60405180910390fd5b6105238484848403600061061e565b5b50505050565b600073ffffffffffffffffffffffffffffffffffffffff168373ffffffffffffffffffffffffffffffffffffffff160361059c5760006040517f96c6fd1e0000000000000000000000000000000000000000000000000000000081526004016105939190610da2565b60405180910390fd5b600073ffffffffffffffffffffffffffffffffffffffff168273ffffffffffffffffffffffffffffffffffffffff160361060e5760006040517fec442f050000000000000000000000000000000000000000000000000000000081526004016106059190610da2565b60405180910390fd5b6106198383836107f5565b505050565b600073ffffffffffffffffffffffffffffffffffffffff168473ffffffffffffffffffffffffffffffffffffffff16036106905760006040517fe602df050000000000000000000000000000000000000000000000000000000081526004016106879190610da2565b60405180910390fd5b600073ffffffffffffffffffffffffffffffffffffffff168373ffffffffffffffffffffffffffffffffffffffff16036107025760006040517f94280d620000000000000000000000000000000000000000000000000000000081526004016106f99190610da2565b60405180910390fd5b81600160008673ffffffffffffffffffffffffffffffffffffffff1673ffffffffffffffffffffffffffffffffffffffff16815260200190815260200160002060008573ffffffffffffffffffffffffffffffffffffffff1673ffffffffffffffffffffffffffffffffffffffff1681526020019081526020016000208190555080156107ef578273ffffffffffffffffffffffffffffffffffffffff168473ffffffffffffffffffffffffffffffffffffffff167f8c5be1e5ebec7d5bd14f71427d1e84f3dd0314c0f7b2291e5b200ac8c7c3b925846040516107e69190610bea565b60405180910390a35b50505050565b600073ffffffffffffffffffffffffffffffffffffffff168373ffffffffffffffffffffffffffffffffffffffff160361084757806002600082825461083b9190610dec565b9250508190555061091a565b60008060008573ffffffffffffffffffffffffffffffffffffffff1673ffffffffffffffffffffffffffffffffffffffff168152602001908152602001600020549050818110156108d3578381836040517fe450d38c0000000000000000000000000000000000000000000000000000000081526004016108ca93929190610d6b565b60405180910390fd5b8181036000808673ffffffffffffffffffffffffffffffffffffffff1673ffffffffffffffffffffffffffffffffffffffff16815260200190815260200160002081905550505b600073ffffffffffffffffffffffffffffffffffffffff168273ffffffffffffffffffffffffffffffffffffffff160361096357806002600082825403925050819055506109b0565b806000808473ffffffffffffffffffffffffffffffffffffffff1673ffffffffffffffffffffffffffffffffffffffff168152602001908152602001600020600082825401925050819055505b8173ffffffffffffffffffffffffffffffffffffffff168373ffffffffffffffffffffffffffffffffffffffff167fddf252ad1be2c89b69c2b068fc378daa952ba7f163c4a11628f55a4df523b3ef83604051610a0d9190610bea565b60405180910390a3505050565b600081519050919050565b600082825260208201905092915050565b60005b83811015610a54578082015181840152602081019050610a39565b60008484015250505050565b6000601f19601f8301169050919050565b6000610a7c82610a1a565b610a868185610a25565b9350610a96818560208601610a36565b610a9f81610a60565b840191505092915050565b60006020820190508181036000830152610ac48184610a71565b905092915050565b600080fd5b600073ffffffffffffffffffffffffffffffffffffffff82169050919050565b6000610afc82610ad1565b9050919050565b610b0c81610af1565b8114610b1757600080fd5b50565b600081359050610b2981610b03565b92915050565b6000819050919050565b610b4281610b2f565b8114610b4d57600080fd5b50565b600081359050610b5f81610b39565b92915050565b60008060408385031215610b7c57610b7b610acc565b5b6000610b8a85828601610b1a565b9250506020610b9b85828601610b50565b9150509250929050565b60008115159050919050565b610bba81610ba5565b82525050565b6000602082019050610bd56000830184610bb1565b92915050565b610be481610b2f565b82525050565b6000602082019050610bff6000830184610bdb565b92915050565b600080600060608486031215610c1e57610c1d610acc565b5b6000610c2c86828701610b1a565b9350506020610c3d86828701610b1a565b9250506040610c4e86828701610b50565b9150509250925092565b600060ff82169050919050565b610c6e81610c58565b82525050565b6000602082019050610c896000830184610c65565b92915050565b600060208284031215610ca557610ca4610acc565b5b6000610cb384828501610b1a565b91505092915050565b60008060408385031215610cd357610cd2610acc565b5b6000610ce185828601610b1a565b9250506020610cf285828601610b1a565b9150509250929050565b7f4e487b7100000000000000000000000000000000000000000000000000000000600052602260045260246000fd5b60006002820490506001821680610d4357607f821691505b602082108103610d5657610d55610cfc565b5b50919050565b610d6581610af1565b82525050565b6000606082019050610d806000830186610d5c565b610d8d6020830185610bdb565b610d9a6040830184610bdb565b949350505050565b6000602082019050610db76000830184610d5c565b92915050565b7f4e487b7100000000000000000000000000000000000000000000000000000000600052601160045260246000fd5b6000610df782610b2f565b9150610e0283610b2f565b9250828201905080821115610e1a57610e19610dbd565b5b9291505056fea2646970667358221220fa8f5cba7a3696507f875c335cbba99a89209fc33cd5ec7a43baed092990c1ad64736f6c6343000814003360806040523480156200001157600080fd5b50604051620027b5380380620027b5833981810160405281019062000037919062000175565b600160008190555081600160006101000a81548173ffffffffffffffffffffffffffffffffffffffff021916908373ffffffffffffffffffffffffffffffffffffffff16021790555033600260006101000a81548173ffffffffffffffffffffffffffffffffffffffff021916908373ffffffffffffffffffffffffffffffffffffffff160217905550806007819055505050620001bc565b600080fd5b600073ffffffffffffffffffffffffffffffffffffffff82169050919050565b60006200010282620000d5565b9050919050565b6200011481620000f5565b81146200012057600080fd5b50565b600081519050620001348162000109565b92915050565b6000819050919050565b6200014f816200013a565b81146200015b57600080fd5b50565b6000815190506200016f8162000144565b92915050565b600080604083850312156200018f576200018e620000d0565b5b60006200019f8582860162000123565b9250506020620001b2858286016200015e565b9150509250929050565b6125e980620001cc6000396000f3fe6080604052600436106101a05760003560e01c806390825c28116100ec578063d5abeb011161008a578063e7c2b77211610064578063e7c2b7721461057a578063e973c557146105a5578063f0f44260146105d0578063fc0c546a146105f9576101a7565b8063d5abeb01146104fb578063d701d1c814610526578063e4849b3214610551576101a7565b8063a6f2ae3a116100c6578063a6f2ae3a1461047e578063c45a015514610488578063c4d66de8146104b3578063c764263a146104cf576101a7565b806390825c28146103fd5780639d1b464a14610428578063a10954fe14610453576101a7565b806361d027b3116101595780637824407f116101335780637824407f146103515780637c5e27951461037c57806383c46137146103a75780638a08f3d5146103d2576101a7565b806361d027b3146102c057806369fcd4ac146102eb5780637499156914610328576101a7565b806302d05d3f146101ac578063158ef93e146101d7578063322d2100146102025780634a210e531461023f5780634d899f7e1461026a5780635e6f604514610295576101a7565b366101a757005b600080fd5b3480156101b857600080fd5b506101c1610624565b6040516101ce919061195b565b60405180910390f35b3480156101e357600080fd5b506101ec61064a565b6040516101f99190611991565b60405180910390f35b34801561020e57600080fd5b50610229600480360381019061022491906119e7565b61065d565b6040516102369190611a23565b60405180910390f35b34801561024b57600080fd5b50610254610705565b6040516102619190611a23565b60405180910390f35b34801561027657600080fd5b5061027f61070a565b60405161028c9190611a23565b60405180910390f35b3480156102a157600080fd5b506102aa61070f565b6040516102b7919061195b565b60405180910390f35b3480156102cc57600080fd5b506102d5610735565b6040516102e2919061195b565b60405180910390f35b3480156102f757600080fd5b50610312600480360381019061030d91906119e7565b61075b565b60405161031f9190611a23565b60405180910390f35b34801561033457600080fd5b5061034f600480360381019061034a9190611a6a565b61081b565b005b34801561035d57600080fd5b506103666109c3565b6040516103739190611a23565b60405180910390f35b34801561038857600080fd5b506103916109c9565b60405161039e9190611a23565b60405180910390f35b3480156103b357600080fd5b506103bc6109d3565b6040516103c99190611991565b60405180910390f35b3480156103de57600080fd5b506103e7610a42565b6040516103f49190611a23565b60405180910390f35b34801561040957600080fd5b50610412610a47565b60405161041f9190611a23565b60405180910390f35b34801561043457600080fd5b5061043d610a51565b60405161044a9190611a23565b60405180910390f35b34801561045f57600080fd5b50610468610abb565b6040516104759190611a23565b60405180910390f35b610486610ac1565b005b34801561049457600080fd5b5061049d610f31565b6040516104aa919061195b565b60405180910390f35b6104cd60048036038101906104c89190611a6a565b610f57565b005b3480156104db57600080fd5b506104e4611250565b6040516104f2929190611a97565b60405180910390f35b34801561050757600080fd5b506105106112b5565b60405161051d9190611a23565b60405180910390f35b34801561053257600080fd5b5061053b6112bb565b6040516105489190611a23565b60405180910390f35b34801561055d57600080fd5b50610578600480360381019061057391906119e7565b6112c0565b005b34801561058657600080fd5b5061058f6115c0565b60405161059c9190611991565b60405180910390f35b3480156105b157600080fd5b506105ba6115d3565b6040516105c79190611a23565b60405180910390f35b3480156105dc57600080fd5b506105f760048036038101906105f29190611a6a565b6115e1565b005b34801561060557600080fd5b5061060e611789565b60405161061b919061195b565b60405180910390f35b600460009054906101000a900473ffffffffffffffffffffffffffffffffffffffff1681565b600860159054906101000a900460ff1681565b600080600654036106a35761069c655af3107a40006ec097ce7bc90715b34b9f10000000008461068d9190611aef565b6106979190611b60565b6117af565b9050610700565b6000826005546106b39190611b91565b905060006106eb655af3107a40006ec097ce7bc90715b34b9f1000000000846106dc9190611aef565b6106e69190611b60565b6117af565b9050600654816106fb9190611bc5565b925050505b919050565b606481565b60c881565b600360009054906101000a900473ffffffffffffffffffffffffffffffffffffffff1681565b600860019054906101000a900473ffffffffffffffffffffffffffffffffffffffff1681565b60006006548211156107a2576040517f08c379a000000000000000000000000000000000000000000000000000000000815260040161079990611c56565b60405180910390fd5b6000600654036107b55760009050610816565b6000826006546107c59190611bc5565b905060006ec097ce7bc90715b34b9f1000000000655af3107a40006002846107ed9190611db6565b6107f79190611aef565b6108019190611b60565b9050806005546108119190611bc5565b925050505b919050565b600260009054906101000a900473ffffffffffffffffffffffffffffffffffffffff1673ffffffffffffffffffffffffffffffffffffffff163373ffffffffffffffffffffffffffffffffffffffff16146108ab576040517f08c379a00000000000000000000000000000000000000000000000000000000081526004016108a290611e4d565b60405180910390fd5b600073ffffffffffffffffffffffffffffffffffffffff16600360009054906101000a900473ffffffffffffffffffffffffffffffffffffffff1673ffffffffffffffffffffffffffffffffffffffff161461093c576040517f08c379a000000000000000000000000000000000000000000000000000000000815260040161093390611eb9565b60405180910390fd5b80600360006101000a81548173ffffffffffffffffffffffffffffffffffffffff021916908373ffffffffffffffffffffffffffffffffffffffff1602179055508073ffffffffffffffffffffffffffffffffffffffff167f5cc1ef5240bc2eaf2d8700ad762816942f83c3049659585c4e09280eeaeacea860405160405180910390a250565b60065481565b655af3107a400081565b6000600860009054906101000a900460ff16156109f35760009050610a3f565b600060055490506000690e9c7f5bd65501200000821015905060006055600754610a1d9190611aef565b6064600654610a2c9190611aef565b101590508180610a395750805b93505050505b90565b605581565b6000600554905090565b60008060065403610a6a57655af3107a40009050610ab8565b60016002610a789190611bc5565b670de0b6b3a7640000610a8b9190611ed9565b6002600654610a9a9190611ed9565b655af3107a4000610aab9190611aef565b610ab59190611b60565b90505b90565b60055481565b610ac961180c565b600860009054906101000a900460ff1615610b19576040517f08c379a0000000000000000000000000000000000000000000000000000000008152600401610b1090611f70565b60405180910390fd5b60075460065410610b5f576040517f08c379a0000000000000000000000000000000000000000000000000000000008152600401610b5690611fdc565b60405180910390fd5b6000612710606434610b719190611aef565b610b7b9190611b60565b905060008134610b8b9190611bc5565b90506000610b988261065d565b905060008111610bdd576040517f08c379a0000000000000000000000000000000000000000000000000000000008152600401610bd490612048565b60405180910390fd5b60075481600654610bee9190611b91565b1115610c0757600654600754610c049190611bc5565b90505b8160056000828254610c199190611b91565b925050819055508060066000828254610c329190611b91565b925050819055506000831115610cac57600860019054906101000a900473ffffffffffffffffffffffffffffffffffffffff1673ffffffffffffffffffffffffffffffffffffffff166108fc849081150290604051600060405180830381858888f19350505050158015610caa573d6000803e3d6000fd5b505b6000600360009054906101000a900473ffffffffffffffffffffffffffffffffffffffff1690506000808273ffffffffffffffffffffffffffffffffffffffff166390a95d6f6006546007546040518363ffffffff1660e01b8152600401610d15929190611a97565b6040805180830381865afa158015610d31573d6000803e3d6000fd5b505050506040513d601f19601f82011682018060405250810190610d55919061207d565b91509150600160009054906101000a900473ffffffffffffffffffffffffffffffffffffffff1673ffffffffffffffffffffffffffffffffffffffff1663095ea7b3600360009054906101000a900473ffffffffffffffffffffffffffffffffffffffff16866040518363ffffffff1660e01b8152600401610dd89291906120bd565b6020604051808303816000875af1158015610df7573d6000803e3d6000fd5b505050506040513d601f19601f82011682018060405250810190610e1b9190612112565b5060008373ffffffffffffffffffffffffffffffffffffffff166367ee1e60600160009054906101000a900473ffffffffffffffffffffffffffffffffffffffff16338887876040518663ffffffff1660e01b8152600401610e8195949392919061213f565b6020604051808303816000875af1158015610ea0573d6000803e3d6000fd5b505050506040513d601f19601f82011682018060405250810190610ec49190612192565b90503373ffffffffffffffffffffffffffffffffffffffff167fedba86fd2b22962d534e70ad9b0ff8730de46f636146f2bab6a72cbb1ebbcc53348784604051610f10939291906121bf565b60405180910390a2610f20611852565b50505050505050610f2f611910565b565b600260009054906101000a900473ffffffffffffffffffffffffffffffffffffffff1681565b600260009054906101000a900473ffffffffffffffffffffffffffffffffffffffff1673ffffffffffffffffffffffffffffffffffffffff163373ffffffffffffffffffffffffffffffffffffffff1614610fe7576040517f08c379a0000000000000000000000000000000000000000000000000000000008152600401610fde90612242565b60405180910390fd5b600860159054906101000a900460ff1615611037576040517f08c379a000000000000000000000000000000000000000000000000000000000815260040161102e906122ae565b60405180910390fd5b6000341161107a576040517f08c379a00000000000000000000000000000000000000000000000000000000081526004016110719061231a565b60405180910390fd5b600073ffffffffffffffffffffffffffffffffffffffff16600360009054906101000a900473ffffffffffffffffffffffffffffffffffffffff1673ffffffffffffffffffffffffffffffffffffffff160361110b576040517f08c379a000000000000000000000000000000000000000000000000000000000815260040161110290612386565b60405180910390fd5b600073ffffffffffffffffffffffffffffffffffffffff16600860019054906101000a900473ffffffffffffffffffffffffffffffffffffffff1673ffffffffffffffffffffffffffffffffffffffff160361119c576040517f08c379a0000000000000000000000000000000000000000000000000000000008152600401611193906123f2565b60405180910390fd5b80600460006101000a81548173ffffffffffffffffffffffffffffffffffffffff021916908373ffffffffffffffffffffffffffffffffffffffff160217905550346005819055506001600860156101000a81548160ff0219169083151502179055508073ffffffffffffffffffffffffffffffffffffffff167f25ff68dd81b34665b5ba7e553ee5511bf6812e12adb4a7e2c0d9e26b3099ce79346040516112459190611a23565b60405180910390a250565b600080690e9c7f5bd6550120000061271060055461126e9190611aef565b6112789190611b60565b91506064605560075461128b9190611aef565b6112959190611b60565b6127106006546112a59190611aef565b6112af9190611b60565b90509091565b60075481565b600281565b6112c861180c565b600860009054906101000a900460ff16611317576040517f08c379a000000000000000000000000000000000000000000000000000000000815260040161130e90612484565b60405180910390fd5b60006113228261075b565b905060008111611367576040517f08c379a000000000000000000000000000000000000000000000000000000000815260040161135e906124f0565b60405180910390fd5b600061271060c8836113799190611aef565b6113839190611b60565b9050600081836113939190611bc5565b905082600560008282546113a79190611bc5565b9250508190555083600660008282546113c09190611bc5565b92505081905550600160009054906101000a900473ffffffffffffffffffffffffffffffffffffffff1673ffffffffffffffffffffffffffffffffffffffff166323b872dd3330876040518463ffffffff1660e01b815260040161142693929190612510565b6020604051808303816000875af1158015611445573d6000803e3d6000fd5b505050506040513d601f19601f820116820180604052508101906114699190612112565b6114a8576040517f08c379a000000000000000000000000000000000000000000000000000000000815260040161149f90612593565b60405180910390fd5b3373ffffffffffffffffffffffffffffffffffffffff166108fc829081150290604051600060405180830381858888f193505050501580156114ee573d6000803e3d6000fd5b50600082111561156257600860019054906101000a900473ffffffffffffffffffffffffffffffffffffffff1673ffffffffffffffffffffffffffffffffffffffff166108fc839081150290604051600060405180830381858888f19350505050158015611560573d6000803e3d6000fd5b505b3373ffffffffffffffffffffffffffffffffffffffff167fbac9694ac0daa55169abd117086fe32c89401d9a3b15dd1d34e55e0aa4e47a9d82866040516115aa929190611a97565b60405180910390a25050506115bd611910565b50565b600860009054906101000a900460ff1681565b690e9c7f5bd6550120000081565b600260009054906101000a900473ffffffffffffffffffffffffffffffffffffffff1673ffffffffffffffffffffffffffffffffffffffff163373ffffffffffffffffffffffffffffffffffffffff1614611671576040517f08c379a000000000000000000000000000000000000000000000000000000000815260040161166890611e4d565b60405180910390fd5b600073ffffffffffffffffffffffffffffffffffffffff16600860019054906101000a900473ffffffffffffffffffffffffffffffffffffffff1673ffffffffffffffffffffffffffffffffffffffff1614611702576040517f08c379a00000000000000000000000000000000000000000000000000000000081526004016116f990611eb9565b60405180910390fd5b80600860016101000a81548173ffffffffffffffffffffffffffffffffffffffff021916908373ffffffffffffffffffffffffffffffffffffffff1602179055508073ffffffffffffffffffffffffffffffffffffffff167f3c864541ef71378c6229510ed90f376565ee42d9c5e0904a984a9e863e6db44f60405160405180910390a250565b600160009054906101000a900473ffffffffffffffffffffffffffffffffffffffff1681565b60008060026001846117c19190611b91565b6117cb9190611b60565b90508291505b818110156118065780915060028182856117eb9190611b60565b6117f59190611b91565b6117ff9190611b60565b90506117d1565b50919050565b600260005403611848576040517f3ee5aeb500000000000000000000000000000000000000000000000000000000815260040160405180910390fd5b6002600081905550565b600860009054906101000a900460ff1661190e57600060055490506000690e9c7f5bd655012000008210159050600060556007546118909190611aef565b606460065461189f9190611aef565b1015905081806118ac5750805b1561190a576001600860006101000a81548160ff0219169083151502179055507f72a089bf72f8bdb633c01144c6cf486e8b100097b06bd326948141b7bd827d888360065442604051611901939291906121bf565b60405180910390a15b5050505b565b6001600081905550565b600073ffffffffffffffffffffffffffffffffffffffff82169050919050565b60006119458261191a565b9050919050565b6119558161193a565b82525050565b6000602082019050611970600083018461194c565b92915050565b60008115159050919050565b61198b81611976565b82525050565b60006020820190506119a66000830184611982565b92915050565b600080fd5b6000819050919050565b6119c4816119b1565b81146119cf57600080fd5b50565b6000813590506119e1816119bb565b92915050565b6000602082840312156119fd576119fc6119ac565b5b6000611a0b848285016119d2565b91505092915050565b611a1d816119b1565b82525050565b6000602082019050611a386000830184611a14565b92915050565b611a478161193a565b8114611a5257600080fd5b50565b600081359050611a6481611a3e565b92915050565b600060208284031215611a8057611a7f6119ac565b5b6000611a8e84828501611a55565b91505092915050565b6000604082019050611aac6000830185611a14565b611ab96020830184611a14565b9392505050565b7f4e487b7100000000000000000000000000000000000000000000000000000000600052601160045260246000fd5b6000611afa826119b1565b9150611b05836119b1565b9250828202611b13816119b1565b91508282048414831517611b2a57611b29611ac0565b5b5092915050565b7f4e487b7100000000000000000000000000000000000000000000000000000000600052601260045260246000fd5b6000611b6b826119b1565b9150611b76836119b1565b925082611b8657611b85611b31565b5b828204905092915050565b6000611b9c826119b1565b9150611ba7836119b1565b9250828201905080821115611bbf57611bbe611ac0565b5b92915050565b6000611bd0826119b1565b9150611bdb836119b1565b9250828203905081811115611bf357611bf2611ac0565b5b92915050565b600082825260208201905092915050565b7f4e6f7420656e6f75676820746f6b656e7320696e20706f6f6c00000000000000600082015250565b6000611c40601983611bf9565b9150611c4b82611c0a565b602082019050919050565b60006020820190508181036000830152611c6f81611c33565b9050919050565b60008160011c9050919050565b6000808291508390505b6001851115611ccd57808604811115611ca957611ca8611ac0565b5b6001851615611cb85780820291505b8081029050611cc685611c76565b9450611c8d565b94509492505050565b600082611ce65760019050611da2565b81611cf45760009050611da2565b8160018114611d0a5760028114611d1457611d43565b6001915050611da2565b60ff841115611d2657611d25611ac0565b5b8360020a915084821115611d3d57611d3c611ac0565b5b50611da2565b5060208310610133831016604e8410600b8410161715611d785782820a905083811115611d7357611d72611ac0565b5b611da2565b611d858484846001611c83565b92509050818404811115611d9c57611d9b611ac0565b5b81810290505b9392505050565b600060ff82169050919050565b6000611dc1826119b1565b9150611dcc83611da9565b9250611df97fffffffffffffffffffffffffffffffffffffffffffffffffffffffffffffffff8484611cd6565b905092915050565b7f4f6e6c7920666163746f72790000000000000000000000000000000000000000600082015250565b6000611e37600c83611bf9565b9150611e4282611e01565b602082019050919050565b60006020820190508181036000830152611e6681611e2a565b9050919050565b7f416c726561647920736574000000000000000000000000000000000000000000600082015250565b6000611ea3600b83611bf9565b9150611eae82611e6d565b602082019050919050565b60006020820190508181036000830152611ed281611e96565b9050919050565b6000611ee4826119b1565b9150611eef836119b1565b9250611f1c7fffffffffffffffffffffffffffffffffffffffffffffffffffffffffffffffff8484611cd6565b905092915050565b7f506f6f6c206861732067726164756174656420746f2044455800000000000000600082015250565b6000611f5a601983611bf9565b9150611f6582611f24565b602082019050919050565b60006020820190508181036000830152611f8981611f4d565b9050919050565b7f4d617820737570706c7920726561636865640000000000000000000000000000600082015250565b6000611fc6601283611bf9565b9150611fd182611f90565b602082019050919050565b60006020820190508181036000830152611ff581611fb9565b9050919050565b7f496e76616c696420707572636861736520616d6f756e74000000000000000000600082015250565b6000612032601783611bf9565b915061203d82611ffc565b602082019050919050565b6000602082019050818103600083015261206181612025565b9050919050565b600081519050612077816119bb565b92915050565b60008060408385031215612094576120936119ac565b5b60006120a285828601612068565b92505060206120b385828601612068565b9150509250929050565b60006040820190506120d2600083018561194c565b6120df6020830184611a14565b9392505050565b6120ef81611976565b81146120fa57600080fd5b50565b60008151905061210c816120e6565b92915050565b600060208284031215612128576121276119ac565b5b6000612136848285016120fd565b91505092915050565b600060a082019050612154600083018861194c565b612161602083018761194c565b61216e6040830186611a14565b61217b6060830185611a14565b6121886080830184611a14565b9695505050505050565b6000602082840312156121a8576121a76119ac565b5b60006121b684828501612068565b91505092915050565b60006060820190506121d46000830186611a14565b6121e16020830185611a14565b6121ee6040830184611a14565b949350505050565b7f4f6e6c7920666163746f72792063616e20696e697469616c697a650000000000600082015250565b600061222c601b83611bf9565b9150612237826121f6565b602082019050919050565b6000602082019050818103600083015261225b8161221f565b9050919050565b7f416c726561647920696e697469616c697a656400000000000000000000000000600082015250565b6000612298601383611bf9565b91506122a382612262565b602082019050919050565b600060208201905081810360008301526122c78161228b565b9050919050565b7f4d7573742070726f7669646520696e697469616c206c69717569646974790000600082015250565b6000612304601e83611bf9565b915061230f826122ce565b602082019050919050565b60006020820190508181036000830152612333816122f7565b9050919050565b7f56657374696e6720636f6e7472616374206e6f74207365740000000000000000600082015250565b6000612370601883611bf9565b915061237b8261233a565b602082019050919050565b6000602082019050818103600083015261239f81612363565b9050919050565b7f5472656173757279206e6f742073657400000000000000000000000000000000600082015250565b60006123dc601083611bf9565b91506123e7826123a6565b602082019050919050565b6000602082019050818103600083015261240b816123cf565b9050919050565b7f43616e206f6e6c792073656c6c2061667465722067726164756174696f6e206f60008201527f7220636c61696d2076657374656420746f6b656e730000000000000000000000602082015250565b600061246e603583611bf9565b915061247982612412565b604082019050919050565b6000602082019050818103600083015261249d81612461565b9050919050565b7f496e76616c69642073616c6520616d6f756e7400000000000000000000000000600082015250565b60006124da601383611bf9565b91506124e5826124a4565b602082019050919050565b60006020820190508181036000830152612509816124cd565b9050919050565b6000606082019050612525600083018661194c565b612532602083018561194c565b61253f6040830184611a14565b949350505050565b7f5472616e73666572206661696c65640000000000000000000000000000000000600082015250565b600061257d600f83611bf9565b915061258882612547565b602082019050919050565b600060208201905081810360008301526125ac81612570565b905091905056fea26469706673582212203fc40cf6bea1009b978e224e66fe9f3efdc81c61df885617628632203d64a20364736f6c63430008140033a26469706673582212206e2064d31b95e0ae3f5045d4ab012fd0c8f4fa7bf6a192f6372a0c80c4089d7164736f6c6343000814003360806040523480156200001157600080fd5b50336001600081905550600073ffffffffffffffffffffffffffffffffffffffff168173ffffffffffffffffffffffffffffffffffffffff1603620000905760006040517f1e4fbdf7000000000000000000000000000000000000000000000000000000008152600401620000879190620001b3565b60405180910390fd5b620000a181620000a860201b60201c565b50620001d0565b6000600160009054906101000a900473ffffffffffffffffffffffffffffffffffffffff16905081600160006101000a81548173ffffffffffffffffffffffffffffffffffffffff021916908373ffffffffffffffffffffffffffffffffffffffff1602179055508173ffffffffffffffffffffffffffffffffffffffff168173ffffffffffffffffffffffffffffffffffffffff167f8be0079c531659141344cd1fd0a4f28419497f9722a3daafe3b4186f6b6457e060405160405180910390a35050565b600073ffffffffffffffffffffffffffffffffffffffff82169050919050565b60006200019b826200016e565b9050919050565b620001ad816200018e565b82525050565b6000602082019050620001ca6000830184620001a2565b92915050565b61289980620001e06000396000f3fe608060405234801561001057600080fd5b50600436106100f55760003560e01c806390a95d6f11610097578063c921634411610066578063c9216344146102ab578063e816b393146102c7578063ee87f24c146102f7578063f2fde38b14610327576100f5565b806390a95d6f146101fe578063a7d891681461022f578063bb7dbfe71461025f578063bcf575dd1461028f576100f5565b80632f50bd72116100d35780632f50bd721461017657806367ee1e60146101a6578063715018a6146101d65780638da5cb5b146101e0576100f5565b80630b8d9ba6146100fa5780631e83409a1461012a5780632a1ee52814610146575b600080fd5b610114600480360381019061010f9190611c80565b610343565b6040516101219190611cd9565b60405180910390f35b610144600480360381019061013f9190611cf4565b6104b8565b005b610160600480360381019061015b9190611c80565b61077e565b60405161016d9190611cd9565b60405180910390f35b610190600480360381019061018b9190611c80565b610808565b60405161019d9190611e75565b60405180910390f35b6101c060048036038101906101bb9190611ec3565b610931565b6040516101cd9190611cd9565b60405180910390f35b6101de610d5e565b005b6101e8610d72565b6040516101f59190611f4d565b60405180910390f35b61021860048036038101906102139190611f68565b610d9c565b604051610226929190611fa8565b60405180910390f35b61024960048036038101906102449190611c80565b610eaa565b6040516102569190611cd9565b60405180910390f35b61027960048036038101906102749190611c80565b611054565b6040516102869190611cd9565b60405180910390f35b6102a960048036038101906102a49190611fd1565b6111fe565b005b6102c560048036038101906102c09190612064565b6114f2565b005b6102e160048036038101906102dc9190611cf4565b6115a3565b6040516102ee91906120b3565b60405180910390f35b610311600480360381019061030c91906120ce565b6115c3565b60405161031e919061219c565b60405180910390f35b610341600480360381019061033c9190611cf4565b611789565b005b600080600260008573ffffffffffffffffffffffffffffffffffffffff1673ffffffffffffffffffffffffffffffffffffffff16815260200190815260200160002060008473ffffffffffffffffffffffffffffffffffffffff1673ffffffffffffffffffffffffffffffffffffffff16815260200190815260200160002090506000805b82805490508110156104ac578281815481106103e7576103e66121b7565b5b906000526020600020906006020160050160009054906101000a900460ff166104995761048b8382815481106104205761041f6121b7565b5b90600052602060002090600602016040518060c001604052908160008201548152602001600182015481526020016002820154815260200160038201548152602001600482015481526020016005820160009054906101000a900460ff16151515158152505061180f565b826104969190612215565b91505b80806104a490612249565b9150506103c8565b50809250505092915050565b6104c061189d565b60006104cc8233611054565b905060008111610511576040517f08c379a0000000000000000000000000000000000000000000000000000000008152600401610508906122ee565b60405180910390fd5b6000600260008473ffffffffffffffffffffffffffffffffffffffff1673ffffffffffffffffffffffffffffffffffffffff16815260200190815260200160002060003373ffffffffffffffffffffffffffffffffffffffff1673ffffffffffffffffffffffffffffffffffffffff168152602001908152602001600020905060005b81805490508110156106e0578181815481106105b3576105b26121b7565b5b906000526020600020906006020160050160009054906101000a900460ff166106cd5760006106598383815481106105ee576105ed6121b7565b5b90600052602060002090600602016040518060c001604052908160008201548152602001600182015481526020016002820154815260200160038201548152602001600482015481526020016005820160009054906101000a900460ff16151515158152505061180f565b905060008383815481106106705761066f6121b7565b5b9060005260206000209060060201600401548261068d919061230e565b9050808484815481106106a3576106a26121b7565b5b906000526020600020906006020160040160008282546106c39190612215565b9250508190555050505b80806106d890612249565b915050610594565b5061070c33838573ffffffffffffffffffffffffffffffffffffffff166118e39092919063ffffffff16565b3373ffffffffffffffffffffffffffffffffffffffff168373ffffffffffffffffffffffffffffffffffffffff167f3737f2a73c794dafe53d8aeea06810a9ebcf7167401b259406960e088e03f830846040516107699190611cd9565b60405180910390a3505061077b611962565b50565b6000600260008473ffffffffffffffffffffffffffffffffffffffff1673ffffffffffffffffffffffffffffffffffffffff16815260200190815260200160002060008373ffffffffffffffffffffffffffffffffffffffff1673ffffffffffffffffffffffffffffffffffffffff16815260200190815260200160002080549050905092915050565b6060600260008473ffffffffffffffffffffffffffffffffffffffff1673ffffffffffffffffffffffffffffffffffffffff16815260200190815260200160002060008373ffffffffffffffffffffffffffffffffffffffff1673ffffffffffffffffffffffffffffffffffffffff168152602001908152602001600020805480602002602001604051908101604052809291908181526020016000905b8282101561092557838290600052602060002090600602016040518060c001604052908160008201548152602001600182015481526020016002820154815260200160038201548152602001600482015481526020016005820160009054906101000a900460ff161515151581525050815260200190600101906108a6565b50505050905092915050565b6000600360003373ffffffffffffffffffffffffffffffffffffffff1673ffffffffffffffffffffffffffffffffffffffff16815260200190815260200160002060009054906101000a900460ff166109bf576040517f08c379a00000000000000000000000000000000000000000000000000000000081526004016109b69061238e565b60405180910390fd5b600073ffffffffffffffffffffffffffffffffffffffff168573ffffffffffffffffffffffffffffffffffffffff1603610a2e576040517f08c379a0000000000000000000000000000000000000000000000000000000008152600401610a25906123fa565b60405180910390fd5b60008411610a71576040517f08c379a0000000000000000000000000000000000000000000000000000000008152600401610a6890612466565b60405180910390fd5b60008211610ab4576040517f08c379a0000000000000000000000000000000000000000000000000000000008152600401610aab906124d2565b60405180910390fd5b81831115610af7576040517f08c379a0000000000000000000000000000000000000000000000000000000008152600401610aee9061253e565b60405180910390fd5b610b243330868973ffffffffffffffffffffffffffffffffffffffff1661196c909392919063ffffffff16565b60006040518060c0016040528086815260200142815260200185815260200184815260200160008152602001600015158152509050600260008873ffffffffffffffffffffffffffffffffffffffff1673ffffffffffffffffffffffffffffffffffffffff16815260200190815260200160002060008773ffffffffffffffffffffffffffffffffffffffff1673ffffffffffffffffffffffffffffffffffffffff168152602001908152602001600020819080600181540180825580915050600190039060005260206000209060060201600090919091909150600082015181600001556020820151816001015560408201518160020155606082015181600301556080820151816004015560a08201518160050160006101000a81548160ff021916908315150217905550505060006001600260008a73ffffffffffffffffffffffffffffffffffffffff1673ffffffffffffffffffffffffffffffffffffffff16815260200190815260200160002060008973ffffffffffffffffffffffffffffffffffffffff1673ffffffffffffffffffffffffffffffffffffffff16815260200190815260200160002080549050610ce1919061230e565b90508673ffffffffffffffffffffffffffffffffffffffff168873ffffffffffffffffffffffffffffffffffffffff167fd667ec3255c57a6021a5d653c63bd2a4bd8e4b84918f552401f2f1e076aa4e328389428a8a604051610d4895949392919061255e565b60405180910390a3809250505095945050505050565b610d666119ee565b610d706000611a75565b565b6000600160009054906101000a900473ffffffffffffffffffffffffffffffffffffffff16905090565b60008060008311610de2576040517f08c379a0000000000000000000000000000000000000000000000000000000008152600401610dd9906125fd565b60405180910390fd5b82841115610e25576040517f08c379a0000000000000000000000000000000000000000000000000000000008152600401610e1c90612669565b60405180910390fd5b60008361271086610e369190612689565b610e4091906126fa565b90506107d08111610e5d5762093a806276a7009250925050610ea3565b6113888111610e78576212750062ed4e009250925050610ea3565b611f408111610e945762278d00630163f5009250925050610ea3565b624f1a006301e1338092509250505b9250929050565b600080600260008573ffffffffffffffffffffffffffffffffffffffff1673ffffffffffffffffffffffffffffffffffffffff16815260200190815260200160002060008473ffffffffffffffffffffffffffffffffffffffff1673ffffffffffffffffffffffffffffffffffffffff16815260200190815260200160002090506000805b828054905081101561104857828181548110610f4e57610f4d6121b7565b5b906000526020600020906006020160050160009054906101000a900460ff16611035576000610ff4848381548110610f8957610f886121b7565b5b90600052602060002090600602016040518060c001604052908160008201548152602001600182015481526020016002820154815260200160038201548152602001600482015481526020016005820160009054906101000a900460ff16151515158152505061180f565b90508084838154811061100a576110096121b7565b5b906000526020600020906006020160000154611026919061230e565b836110319190612215565b9250505b808061104090612249565b915050610f2f565b50809250505092915050565b600080600260008573ffffffffffffffffffffffffffffffffffffffff1673ffffffffffffffffffffffffffffffffffffffff16815260200190815260200160002060008473ffffffffffffffffffffffffffffffffffffffff1673ffffffffffffffffffffffffffffffffffffffff16815260200190815260200160002090506000805b82805490508110156111f2578281815481106110f8576110f76121b7565b5b906000526020600020906006020160050160009054906101000a900460ff166111df57600061119e848381548110611133576111326121b7565b5b90600052602060002090600602016040518060c001604052908160008201548152602001600182015481526020016002820154815260200160038201548152602001600482015481526020016005820160009054906101000a900460ff16151515158152505061180f565b90508382815481106111b3576111b26121b7565b5b906000526020600020906006020160040154816111d0919061230e565b836111db9190612215565b9250505b80806111ea90612249565b9150506110d9565b50809250505092915050565b6112066119ee565b600260008573ffffffffffffffffffffffffffffffffffffffff1673ffffffffffffffffffffffffffffffffffffffff16815260200190815260200160002060008473ffffffffffffffffffffffffffffffffffffffff1673ffffffffffffffffffffffffffffffffffffffff1681526020019081526020016000208054905082106112c7576040517f08c379a00000000000000000000000000000000000000000000000000000000081526004016112be90612777565b60405180910390fd5b6000600260008673ffffffffffffffffffffffffffffffffffffffff1673ffffffffffffffffffffffffffffffffffffffff16815260200190815260200160002060008573ffffffffffffffffffffffffffffffffffffffff1673ffffffffffffffffffffffffffffffffffffffff1681526020019081526020016000208381548110611357576113566121b7565b5b906000526020600020906006020190508060050160009054906101000a900460ff16156113b9576040517f08c379a00000000000000000000000000000000000000000000000000000000081526004016113b0906127e3565b60405180910390fd5b600061141c826040518060c001604052908160008201548152602001600182015481526020016002820154815260200160038201548152602001600482015481526020016005820160009054906101000a900460ff16151515158152505061180f565b90506000818360000154611430919061230e565b905060018360050160006101000a81548160ff02191690831515021790555060008111156114845761148384828973ffffffffffffffffffffffffffffffffffffffff166118e39092919063ffffffff16565b5b8573ffffffffffffffffffffffffffffffffffffffff168773ffffffffffffffffffffffffffffffffffffffff167f5eda216547bfbff2ffbc5faf579b24c0cdd766049640f9dd333968ad81cfc563876040516114e19190611cd9565b60405180910390a350505050505050565b6114fa6119ee565b80600360008473ffffffffffffffffffffffffffffffffffffffff1673ffffffffffffffffffffffffffffffffffffffff16815260200190815260200160002060006101000a81548160ff0219169083151502179055508173ffffffffffffffffffffffffffffffffffffffff167fe36c1c5646056c35ea7cf47929401e11acbbe689ed31e681ae372723ce3621dc8260405161159791906120b3565b60405180910390a25050565b60036020528060005260406000206000915054906101000a900460ff1681565b6115cb611be5565b600260008573ffffffffffffffffffffffffffffffffffffffff1673ffffffffffffffffffffffffffffffffffffffff16815260200190815260200160002060008473ffffffffffffffffffffffffffffffffffffffff1673ffffffffffffffffffffffffffffffffffffffff16815260200190815260200160002080549050821061168c576040517f08c379a000000000000000000000000000000000000000000000000000000000815260040161168390612777565b60405180910390fd5b600260008573ffffffffffffffffffffffffffffffffffffffff1673ffffffffffffffffffffffffffffffffffffffff16815260200190815260200160002060008473ffffffffffffffffffffffffffffffffffffffff1673ffffffffffffffffffffffffffffffffffffffff168152602001908152602001600020828154811061171a576117196121b7565b5b90600052602060002090600602016040518060c001604052908160008201548152602001600182015481526020016002820154815260200160038201548152602001600482015481526020016005820160009054906101000a900460ff16151515158152505090509392505050565b6117916119ee565b600073ffffffffffffffffffffffffffffffffffffffff168173ffffffffffffffffffffffffffffffffffffffff16036118035760006040517f1e4fbdf70000000000000000000000000000000000000000000000000000000081526004016117fa9190611f4d565b60405180910390fd5b61180c81611a75565b50565b6000816040015182602001516118259190612215565b4210156118355760009050611898565b816060015182602001516118499190612215565b421061185b5781600001519050611898565b600082602001514261186d919061230e565b9050600083606001518285600001516118869190612689565b61189091906126fa565b905080925050505b919050565b6002600054036118d9576040517f3ee5aeb500000000000000000000000000000000000000000000000000000000815260040160405180910390fd5b6002600081905550565b61195d838473ffffffffffffffffffffffffffffffffffffffff1663a9059cbb8585604051602401611916929190612803565b604051602081830303815290604052915060e01b6020820180517bffffffffffffffffffffffffffffffffffffffffffffffffffffffff8381831617835250505050611b3b565b505050565b6001600081905550565b6119e8848573ffffffffffffffffffffffffffffffffffffffff166323b872dd8686866040516024016119a19392919061282c565b604051602081830303815290604052915060e01b6020820180517bffffffffffffffffffffffffffffffffffffffffffffffffffffffff8381831617835250505050611b3b565b50505050565b6119f6611bdd565b73ffffffffffffffffffffffffffffffffffffffff16611a14610d72565b73ffffffffffffffffffffffffffffffffffffffff1614611a7357611a37611bdd565b6040517f118cdaa7000000000000000000000000000000000000000000000000000000008152600401611a6a9190611f4d565b60405180910390fd5b565b6000600160009054906101000a900473ffffffffffffffffffffffffffffffffffffffff16905081600160006101000a81548173ffffffffffffffffffffffffffffffffffffffff021916908373ffffffffffffffffffffffffffffffffffffffff1602179055508173ffffffffffffffffffffffffffffffffffffffff168173ffffffffffffffffffffffffffffffffffffffff167f8be0079c531659141344cd1fd0a4f28419497f9722a3daafe3b4186f6b6457e060405160405180910390a35050565b600080602060008451602086016000885af180611b5e576040513d6000823e3d81fd5b3d925060005191505060008214611b79576001811415611b95565b60008473ffffffffffffffffffffffffffffffffffffffff163b145b15611bd757836040517f5274afe7000000000000000000000000000000000000000000000000000000008152600401611bce9190611f4d565b60405180910390fd5b50505050565b600033905090565b6040518060c0016040528060008152602001600081526020016000815260200160008152602001600081526020016000151581525090565b600080fd5b600073ffffffffffffffffffffffffffffffffffffffff82169050919050565b6000611c4d82611c22565b9050919050565b611c5d81611c42565b8114611c6857600080fd5b50565b600081359050611c7a81611c54565b92915050565b60008060408385031215611c9757611c96611c1d565b5b6000611ca585828601611c6b565b9250506020611cb685828601611c6b565b9150509250929050565b6000819050919050565b611cd381611cc0565b82525050565b6000602082019050611cee6000830184611cca565b92915050565b600060208284031215611d0a57611d09611c1d565b5b6000611d1884828501611c6b565b91505092915050565b600081519050919050565b600082825260208201905092915050565b6000819050602082019050919050565b611d5681611cc0565b82525050565b60008115159050919050565b611d7181611d5c565b82525050565b60c082016000820151611d8d6000850182611d4d565b506020820151611da06020850182611d4d565b506040820151611db36040850182611d4d565b506060820151611dc66060850182611d4d565b506080820151611dd96080850182611d4d565b5060a0820151611dec60a0850182611d68565b50505050565b6000611dfe8383611d77565b60c08301905092915050565b6000602082019050919050565b6000611e2282611d21565b611e2c8185611d2c565b9350611e3783611d3d565b8060005b83811015611e68578151611e4f8882611df2565b9750611e5a83611e0a565b925050600181019050611e3b565b5085935050505092915050565b60006020820190508181036000830152611e8f8184611e17565b905092915050565b611ea081611cc0565b8114611eab57600080fd5b50565b600081359050611ebd81611e97565b92915050565b600080600080600060a08688031215611edf57611ede611c1d565b5b6000611eed88828901611c6b565b9550506020611efe88828901611c6b565b9450506040611f0f88828901611eae565b9350506060611f2088828901611eae565b9250506080611f3188828901611eae565b9150509295509295909350565b611f4781611c42565b82525050565b6000602082019050611f626000830184611f3e565b92915050565b60008060408385031215611f7f57611f7e611c1d565b5b6000611f8d85828601611eae565b9250506020611f9e85828601611eae565b9150509250929050565b6000604082019050611fbd6000830185611cca565b611fca6020830184611cca565b9392505050565b60008060008060808587031215611feb57611fea611c1d565b5b6000611ff987828801611c6b565b945050602061200a87828801611c6b565b935050604061201b87828801611eae565b925050606061202c87828801611c6b565b91505092959194509250565b61204181611d5c565b811461204c57600080fd5b50565b60008135905061205e81612038565b92915050565b6000806040838503121561207b5761207a611c1d565b5b600061208985828601611c6b565b925050602061209a8582860161204f565b9150509250929050565b6120ad81611d5c565b82525050565b60006020820190506120c860008301846120a4565b92915050565b6000806000606084860312156120e7576120e6611c1d565b5b60006120f586828701611c6b565b935050602061210686828701611c6b565b925050604061211786828701611eae565b9150509250925092565b60c0820160008201516121376000850182611d4d565b50602082015161214a6020850182611d4d565b50604082015161215d6040850182611d4d565b5060608201516121706060850182611d4d565b5060808201516121836080850182611d4d565b5060a082015161219660a0850182611d68565b50505050565b600060c0820190506121b16000830184612121565b92915050565b7f4e487b7100000000000000000000000000000000000000000000000000000000600052603260045260246000fd5b7f4e487b7100000000000000000000000000000000000000000000000000000000600052601160045260246000fd5b600061222082611cc0565b915061222b83611cc0565b9250828201905080821115612243576122426121e6565b5b92915050565b600061225482611cc0565b91507fffffffffffffffffffffffffffffffffffffffffffffffffffffffffffffffff8203612286576122856121e6565b5b600182019050919050565b600082825260208201905092915050565b7f4e6f20746f6b656e7320746f20636c61696d0000000000000000000000000000600082015250565b60006122d8601283612291565b91506122e3826122a2565b602082019050919050565b60006020820190508181036000830152612307816122cb565b9050919050565b600061231982611cc0565b915061232483611cc0565b925082820390508181111561233c5761233b6121e6565b5b92915050565b7f4e6f7420617574686f72697a6564000000000000000000000000000000000000600082015250565b6000612378600e83612291565b915061238382612342565b602082019050919050565b600060208201905081810360008301526123a78161236b565b9050919050565b7f496e76616c69642062656e656669636961727900000000000000000000000000600082015250565b60006123e4601383612291565b91506123ef826123ae565b602082019050919050565b60006020820190508181036000830152612413816123d7565b9050919050565b7f416d6f756e74206d757374206265203e20300000000000000000000000000000600082015250565b6000612450601283612291565b915061245b8261241a565b602082019050919050565b6000602082019050818103600083015261247f81612443565b9050919050565b7f4475726174696f6e206d757374206265203e2030000000000000000000000000600082015250565b60006124bc601483612291565b91506124c782612486565b602082019050919050565b600060208201905081810360008301526124eb816124af565b9050919050565b7f436c69666620746f6f206c6f6e67000000000000000000000000000000000000600082015250565b6000612528600e83612291565b9150612533826124f2565b602082019050919050565b600060208201905081810360008301526125578161251b565b9050919050565b600060a0820190506125736000830188611cca565b6125806020830187611cca565b61258d6040830186611cca565b61259a6060830185611cca565b6125a76080830184611cca565b9695505050505050565b7f4d617820737570706c79206d757374206265203e203000000000000000000000600082015250565b60006125e7601683612291565b91506125f2826125b1565b602082019050919050565b60006020820190508181036000830152612616816125da565b9050919050565b7f43757272656e742065786365656473206d617800000000000000000000000000600082015250565b6000612653601383612291565b915061265e8261261d565b602082019050919050565b6000602082019050818103600083015261268281612646565b9050919050565b600061269482611cc0565b915061269f83611cc0565b92508282026126ad81611cc0565b915082820484148315176126c4576126c36121e6565b5b5092915050565b7f4e487b7100000000000000000000000000000000000000000000000000000000600052601260045260246000fd5b600061270582611cc0565b915061271083611cc0565b9250826127205761271f6126cb565b5b828204905092915050565b7f496e76616c6964207363686564756c6520494400000000000000000000000000600082015250565b6000612761601383612291565b915061276c8261272b565b602082019050919050565b6000602082019050818103600083015261279081612754565b9050919050565b7f416c7265616479207265766f6b65640000000000000000000000000000000000600082015250565b60006127cd600f83612291565b91506127d882612797565b602082019050919050565b600060208201905081810360008301526127fc816127c0565b9050919050565b60006040820190506128186000830185611f3e565b6128256020830184611cca565b9392505050565b60006060820190506128416000830186611f3e565b61284e6020830185611f3e565b61285b6040830184611cca565b94935050505056fea26469706673582212206c91919e8b94190b9a56b5ab27e9030ea11b00f681cca02c5c60c3f75055cffd64736f6c63430008140033",
  "linkReferences": {},
  "deployedLinkReferences": {}
}