{
  "_format": "hh-sol-artifact-1",
  "contractName": "TokenFactory",
  "sourceName": "contracts/TokenFactory.sol",
  "abi": [
    {
      "anonymous": false,
      "inputs": [
        {
          "indexed": true,
          "internalType": "address",
          "name": "token",
          "type": "address"
        },
        {
          "indexed": true,
          "internalType": "address",
          "name": "creator",
          "type": "address"
        },
        {
          "indexed": false,
          "internalType": "address",
          "name": "pool",
          "type": "address"
        }
      ],
      "name": "TokenCreated",
      "type": "event"
    },
    {
      "inputs": [
        {
          "internalType": "uint256",
          "name": "",
          "type": "uint256"
        }
      ],
      "name": "allTokens",
      "outputs": [
        {
          "internalType": "address",
          "name": "",
          "type": "address"
        }
      ],
      "stateMutability": "view",
      "type": "function"
    },
    {
      "inputs": [
        {
          "internalType": "string",
          "name": "name",
          "type": "string"
        },
        {
          "internalType": "string",
          "name": "symbol",
          "type": "string"
        },
        {
          "internalType": "uint256",
          "name": "initialSupply",
          "type": "uint256"
        },
        {
          "internalType": "uint256",
          "name": "initialLiquidityETH",
          "type": "uint256"
        }
      ],
      "name": "createTokenWithLiquidity",
      "outputs": [
        {
          "internalType": "address",
          "name": "",
          "type": "address"
        }
      ],
      "stateMutability": "payable",
      "type": "function"
    },
    {
      "inputs": [],
      "name": "getAllTokens",
      "outputs": [
        {
          "internalType": "address[]",
          "name": "",
          "type": "address[]"
        }
      ],
      "stateMutability": "view",
      "type": "function"
    },
    {
      "inputs": [
        {
          "internalType": "address",
          "name": "token",
          "type": "address"
        }
      ],
      "name": "getPoolForToken",
      "outputs": [
        {
          "internalType": "address",
          "name": "",
          "type": "address"
        }
      ],
      "stateMutability": "view",
      "type": "function"
    },
    {
      "inputs": [
        {
          "internalType": "address",
          "name": "",
          "type": "address"
        }
      ],
      "name": "tokenToPool",
      "outputs": [
        {
          "internalType": "address",
          "name": "",
          "type": "address"
        }
      ],
      "stateMutability": "view",
      "type": "function"
    }
  ],
  "bytecode": "0x608060405234801561001057600080fd5b50613d0f806100206000396000f3fe608060405260043610620000505760003560e01c8063255bfbcc14620000555780632a5c792a1462000099578063634282af14620000c9578063989796b5146200010d5780639f9ecd431462000151575b600080fd5b3480156200006257600080fd5b506200008160048036038101906200007b9190620007c7565b62000187565b6040516200009091906200080a565b60405180910390f35b348015620000a657600080fd5b50620000b1620001f0565b604051620000c09190620008f5565b60405180910390f35b348015620000d657600080fd5b50620000f56004803603810190620000ef919062000954565b62000280565b6040516200010491906200080a565b60405180910390f35b3480156200011a57600080fd5b50620001396004803603810190620001339190620007c7565b620002c0565b6040516200014891906200080a565b60405180910390f35b6200016f6004803603810190620001699190620009f4565b620002f3565b6040516200017e91906200080a565b60405180910390f35b6000600160008373ffffffffffffffffffffffffffffffffffffffff1673ffffffffffffffffffffffffffffffffffffffff16815260200190815260200160002060009054906101000a900473ffffffffffffffffffffffffffffffffffffffff169050919050565b606060008054806020026020016040519081016040528092919081815260200182805480156200027657602002820191906000526020600020905b8160009054906101000a900473ffffffffffffffffffffffffffffffffffffffff1673ffffffffffffffffffffffffffffffffffffffff16815260200190600101908083116200022b575b5050505050905090565b600081815481106200029157600080fd5b906000526020600020016000915054906101000a900473ffffffffffffffffffffffffffffffffffffffff1681565b60016020528060005260406000206000915054906101000a900473ffffffffffffffffffffffffffffffffffffffff1681565b6000813410156200033b576040517f08c379a0000000000000000000000000000000000000000000000000000000008152600401620003329062000b0d565b60405180910390fd5b6000878787878760405162000350906200073c565b6200036095949392919062000b93565b604051809103906000f0801580156200037d573d6000803e3d6000fd5b5090506000819080600181540180825580915050600190039060005260206000200160009091909190916101000a81548173ffffffffffffffffffffffffffffffffffffffff021916908373ffffffffffffffffffffffffffffffffffffffff160217905550600081604051620003f4906200074a565b6200040091906200080a565b604051809103906000f0801580156200041d573d6000803e3d6000fd5b50905080600160008473ffffffffffffffffffffffffffffffffffffffff1673ffffffffffffffffffffffffffffffffffffffff16815260200190815260200160002060006101000a81548173ffffffffffffffffffffffffffffffffffffffff021916908373ffffffffffffffffffffffffffffffffffffffff1602179055508173ffffffffffffffffffffffffffffffffffffffff1663a9059cbb33876040518363ffffffff1660e01b8152600401620004db92919062000be2565b6020604051808303816000875af1158015620004fb573d6000803e3d6000fd5b505050506040513d601f19601f8201168201806040525081019062000521919062000c4c565b5060008173ffffffffffffffffffffffffffffffffffffffff1685336040516024016200054f91906200080a565b6040516020818303038152906040527fc4d66de8000000000000000000000000000000000000000000000000000000007bffffffffffffffffffffffffffffffffffffffffffffffffffffffff19166020820180517bffffffffffffffffffffffffffffffffffffffffffffffffffffffff8381831617835250505050604051620005db919062000cf7565b60006040518083038185875af1925050503d80600081146200061a576040519150601f19603f3d011682016040523d82523d6000602084013e6200061f565b606091505b505090508062000666576040517f08c379a00000000000000000000000000000000000000000000000000000000081526004016200065d9062000d60565b60405180910390fd5b84341115620006c5573373ffffffffffffffffffffffffffffffffffffffff166108fc863462000697919062000db1565b9081150290604051600060405180830381858888f19350505050158015620006c3573d6000803e3d6000fd5b505b3373ffffffffffffffffffffffffffffffffffffffff168373ffffffffffffffffffffffffffffffffffffffff167fb5a149b73151b44553ff737ca050c61de65038e2ae67ec044215d3261cc6fa00846040516200072491906200080a565b60405180910390a38293505050509695505050505050565b6118648062000ded83390190565b611689806200265183390190565b600080fd5b600080fd5b600073ffffffffffffffffffffffffffffffffffffffff82169050919050565b60006200078f8262000762565b9050919050565b620007a18162000782565b8114620007ad57600080fd5b50565b600081359050620007c18162000796565b92915050565b600060208284031215620007e057620007df62000758565b5b6000620007f084828501620007b0565b91505092915050565b620008048162000782565b82525050565b6000602082019050620008216000830184620007f9565b92915050565b600081519050919050565b600082825260208201905092915050565b6000819050602082019050919050565b6200085e8162000782565b82525050565b600062000872838362000853565b60208301905092915050565b6000602082019050919050565b6000620008988262000827565b620008a4818562000832565b9350620008b18362000843565b8060005b83811015620008e8578151620008cc888262000864565b9750620008d9836200087e565b925050600181019050620008b5565b5085935050505092915050565b600060208201905081810360008301526200091181846200088b565b905092915050565b6000819050919050565b6200092e8162000919565b81146200093a57600080fd5b50565b6000813590506200094e8162000923565b92915050565b6000602082840312156200096d576200096c62000758565b5b60006200097d848285016200093d565b91505092915050565b600080fd5b600080fd5b600080fd5b60008083601f840112620009ae57620009ad62000986565b5b8235905067ffffffffffffffff811115620009ce57620009cd6200098b565b5b602083019150836001820283011115620009ed57620009ec62000990565b5b9250929050565b6000806000806000806080878903121562000a145762000a1362000758565b5b600087013567ffffffffffffffff81111562000a355762000a346200075d565b5b62000a4389828a0162000995565b9650965050602087013567ffffffffffffffff81111562000a695762000a686200075d565b5b62000a7789828a0162000995565b9450945050604062000a8c89828a016200093d565b925050606062000a9f89828a016200093d565b9150509295509295509295565b600082825260208201905092915050565b7f496e73756666696369656e74204554482073656e740000000000000000000000600082015250565b600062000af560158362000aac565b915062000b028262000abd565b602082019050919050565b6000602082019050818103600083015262000b288162000ae6565b9050919050565b82818337600083830152505050565b6000601f19601f8301169050919050565b600062000b5d838562000aac565b935062000b6c83858462000b2f565b62000b778362000b3e565b840190509392505050565b62000b8d8162000919565b82525050565b6000606082019050818103600083015262000bb081878962000b4f565b9050818103602083015262000bc781858762000b4f565b905062000bd8604083018462000b82565b9695505050505050565b600060408201905062000bf96000830185620007f9565b62000c08602083018462000b82565b9392505050565b60008115159050919050565b62000c268162000c0f565b811462000c3257600080fd5b50565b60008151905062000c468162000c1b565b92915050565b60006020828403121562000c655762000c6462000758565b5b600062000c758482850162000c35565b91505092915050565b600081519050919050565b600081905092915050565b60005b8381101562000cb457808201518184015260208101905062000c97565b60008484015250505050565b600062000ccd8262000c7e565b62000cd9818562000c89565b935062000ceb81856020860162000c94565b80840191505092915050565b600062000d05828462000cc0565b915081905092915050565b7f455448207472616e73666572206661696c656400000000000000000000000000600082015250565b600062000d4860138362000aac565b915062000d558262000d10565b602082019050919050565b6000602082019050818103600083015262000d7b8162000d39565b9050919050565b7f4e487b7100000000000000000000000000000000000000000000000000000000600052601160045260246000fd5b600062000dbe8262000919565b915062000dcb8362000919565b925082820390508181111562000de65762000de562000d82565b5b9291505056fe60806040523480156200001157600080fd5b506040516200186438038062001864833981810160405281019062000037919062000505565b828281600390816200004a9190620007e0565b5080600490816200005c9190620007e0565b5050506200007133826200007a60201b60201c565b505050620009fe565b600073ffffffffffffffffffffffffffffffffffffffff168273ffffffffffffffffffffffffffffffffffffffff1603620000ef5760006040517fec442f05000000000000000000000000000000000000000000000000000000008152600401620000e691906200090c565b60405180910390fd5b62000103600083836200010760201b60201c565b5050565b600073ffffffffffffffffffffffffffffffffffffffff168373ffffffffffffffffffffffffffffffffffffffff16036200015d57806002600082825462000150919062000958565b9250508190555062000233565b60008060008573ffffffffffffffffffffffffffffffffffffffff1673ffffffffffffffffffffffffffffffffffffffff16815260200190815260200160002054905081811015620001ec578381836040517fe450d38c000000000000000000000000000000000000000000000000000000008152600401620001e393929190620009a4565b60405180910390fd5b8181036000808673ffffffffffffffffffffffffffffffffffffffff1673ffffffffffffffffffffffffffffffffffffffff16815260200190815260200160002081905550505b600073ffffffffffffffffffffffffffffffffffffffff168273ffffffffffffffffffffffffffffffffffffffff16036200027e5780600260008282540392505081905550620002cb565b806000808473ffffffffffffffffffffffffffffffffffffffff1673ffffffffffffffffffffffffffffffffffffffff168152602001908152602001600020600082825401925050819055505b8173ffffffffffffffffffffffffffffffffffffffff168373ffffffffffffffffffffffffffffffffffffffff167fddf252ad1be2c89b69c2b068fc378daa952ba7f163c4a11628f55a4df523b3ef836040516200032a9190620009e1565b60405180910390a3505050565b6000604051905090565b600080fd5b600080fd5b600080fd5b600080fd5b6000601f19601f8301169050919050565b7f4e487b7100000000000000000000000000000000000000000000000000000000600052604160045260246000fd5b620003a08262000355565b810181811067ffffffffffffffff82111715620003c257620003c162000366565b5b80604052505050565b6000620003d762000337565b9050620003e5828262000395565b919050565b600067ffffffffffffffff82111562000408576200040762000366565b5b620004138262000355565b9050602081019050919050565b60005b838110156200044057808201518184015260208101905062000423565b60008484015250505050565b6000620004636200045d84620003ea565b620003cb565b90508281526020810184848401111562000482576200048162000350565b5b6200048f84828562000420565b509392505050565b600082601f830112620004af57620004ae6200034b565b5b8151620004c18482602086016200044c565b91505092915050565b6000819050919050565b620004df81620004ca565b8114620004eb57600080fd5b50565b600081519050620004ff81620004d4565b92915050565b60008060006060848603121562000521576200052062000341565b5b600084015167ffffffffffffffff81111562000542576200054162000346565b5b620005508682870162000497565b935050602084015167ffffffffffffffff81111562000574576200057362000346565b5b620005828682870162000497565b92505060406200059586828701620004ee565b9150509250925092565b600081519050919050565b7f4e487b7100000000000000000000000000000000000000000000000000000000600052602260045260246000fd5b60006002820490506001821680620005f257607f821691505b602082108103620006085762000607620005aa565b5b50919050565b60008190508160005260206000209050919050565b60006020601f8301049050919050565b600082821b905092915050565b600060088302620006727fffffffffffffffffffffffffffffffffffffffffffffffffffffffffffffffff8262000633565b6200067e868362000633565b95508019841693508086168417925050509392505050565b6000819050919050565b6000620006c1620006bb620006b584620004ca565b62000696565b620004ca565b9050919050565b6000819050919050565b620006dd83620006a0565b620006f5620006ec82620006c8565b84845462000640565b825550505050565b600090565b6200070c620006fd565b62000719818484620006d2565b505050565b5b8181101562000741576200073560008262000702565b6001810190506200071f565b5050565b601f82111562000790576200075a816200060e565b620007658462000623565b8101602085101562000775578190505b6200078d620007848562000623565b8301826200071e565b50505b505050565b600082821c905092915050565b6000620007b56000198460080262000795565b1980831691505092915050565b6000620007d08383620007a2565b9150826002028217905092915050565b620007eb826200059f565b67ffffffffffffffff81111562000807576200080662000366565b5b620008138254620005d9565b6200082082828562000745565b600060209050601f83116001811462000858576000841562000843578287015190505b6200084f8582620007c2565b865550620008bf565b601f19841662000868866200060e565b60005b8281101562000892578489015182556001820191506020850194506020810190506200086b565b86831015620008b25784890151620008ae601f891682620007a2565b8355505b6001600288020188555050505b505050505050565b600073ffffffffffffffffffffffffffffffffffffffff82169050919050565b6000620008f482620008c7565b9050919050565b6200090681620008e7565b82525050565b6000602082019050620009236000830184620008fb565b92915050565b7f4e487b7100000000000000000000000000000000000000000000000000000000600052601160045260246000fd5b60006200096582620004ca565b91506200097283620004ca565b92508282019050808211156200098d576200098c62000929565b5b92915050565b6200099e81620004ca565b82525050565b6000606082019050620009bb6000830186620008fb565b620009ca602083018562000993565b620009d9604083018462000993565b949350505050565b6000602082019050620009f8600083018462000993565b92915050565b610e568062000a0e6000396000f3fe608060405234801561001057600080fd5b50600436106100935760003560e01c8063313ce56711610066578063313ce5671461013457806370a082311461015257806395d89b4114610182578063a9059cbb146101a0578063dd62ed3e146101d057610093565b806306fdde0314610098578063095ea7b3146100b657806318160ddd146100e657806323b872dd14610104575b600080fd5b6100a0610200565b6040516100ad9190610aaa565b60405180910390f35b6100d060048036038101906100cb9190610b65565b610292565b6040516100dd9190610bc0565b60405180910390f35b6100ee6102b5565b6040516100fb9190610bea565b60405180910390f35b61011e60048036038101906101199190610c05565b6102bf565b60405161012b9190610bc0565b60405180910390f35b61013c6102ee565b6040516101499190610c74565b60405180910390f35b61016c60048036038101906101679190610c8f565b6102f7565b6040516101799190610bea565b60405180910390f35b61018a61033f565b6040516101979190610aaa565b60405180910390f35b6101ba60048036038101906101b59190610b65565b6103d1565b6040516101c79190610bc0565b60405180910390f35b6101ea60048036038101906101e59190610cbc565b6103f4565b6040516101f79190610bea565b60405180910390f35b60606003805461020f90610d2b565b80601f016020809104026020016040519081016040528092919081815260200182805461023b90610d2b565b80156102885780601f1061025d57610100808354040283529160200191610288565b820191906000526020600020905b81548152906001019060200180831161026b57829003601f168201915b5050505050905090565b60008061029d61047b565b90506102aa818585610483565b600191505092915050565b6000600254905090565b6000806102ca61047b565b90506102d7858285610495565b6102e285858561052a565b60019150509392505050565b60006012905090565b60008060008373ffffffffffffffffffffffffffffffffffffffff1673ffffffffffffffffffffffffffffffffffffffff168152602001908152602001600020549050919050565b60606004805461034e90610d2b565b80601f016020809104026020016040519081016040528092919081815260200182805461037a90610d2b565b80156103c75780601f1061039c576101008083540402835291602001916103c7565b820191906000526020600020905b8154815290600101906020018083116103aa57829003601f168201915b5050505050905090565b6000806103dc61047b565b90506103e981858561052a565b600191505092915050565b6000600160008473ffffffffffffffffffffffffffffffffffffffff1673ffffffffffffffffffffffffffffffffffffffff16815260200190815260200160002060008373ffffffffffffffffffffffffffffffffffffffff1673ffffffffffffffffffffffffffffffffffffffff16815260200190815260200160002054905092915050565b600033905090565b610490838383600161061e565b505050565b60006104a184846103f4565b90507fffffffffffffffffffffffffffffffffffffffffffffffffffffffffffffffff8110156105245781811015610514578281836040517ffb8f41b200000000000000000000000000000000000000000000000000000000815260040161050b93929190610d6b565b60405180910390fd5b6105238484848403600061061e565b5b50505050565b600073ffffffffffffffffffffffffffffffffffffffff168373ffffffffffffffffffffffffffffffffffffffff160361059c5760006040517f96c6fd1e0000000000000000000000000000000000000000000000000000000081526004016105939190610da2565b60405180910390fd5b600073ffffffffffffffffffffffffffffffffffffffff168273ffffffffffffffffffffffffffffffffffffffff160361060e5760006040517fec442f050000000000000000000000000000000000000000000000000000000081526004016106059190610da2565b60405180910390fd5b6106198383836107f5565b505050565b600073ffffffffffffffffffffffffffffffffffffffff168473ffffffffffffffffffffffffffffffffffffffff16036106905760006040517fe602df050000000000000000000000000000000000000000000000000000000081526004016106879190610da2565b60405180910390fd5b600073ffffffffffffffffffffffffffffffffffffffff168373ffffffffffffffffffffffffffffffffffffffff16036107025760006040517f94280d620000000000000000000000000000000000000000000000000000000081526004016106f99190610da2565b60405180910390fd5b81600160008673ffffffffffffffffffffffffffffffffffffffff1673ffffffffffffffffffffffffffffffffffffffff16815260200190815260200160002060008573ffffffffffffffffffffffffffffffffffffffff1673ffffffffffffffffffffffffffffffffffffffff1681526020019081526020016000208190555080156107ef578273ffffffffffffffffffffffffffffffffffffffff168473ffffffffffffffffffffffffffffffffffffffff167f8c5be1e5ebec7d5bd14f71427d1e84f3dd0314c0f7b2291e5b200ac8c7c3b925846040516107e69190610bea565b60405180910390a35b50505050565b600073ffffffffffffffffffffffffffffffffffffffff168373ffffffffffffffffffffffffffffffffffffffff160361084757806002600082825461083b9190610dec565b9250508190555061091a565b60008060008573ffffffffffffffffffffffffffffffffffffffff1673ffffffffffffffffffffffffffffffffffffffff168152602001908152602001600020549050818110156108d3578381836040517fe450d38c0000000000000000000000000000000000000000000000000000000081526004016108ca93929190610d6b565b60405180910390fd5b8181036000808673ffffffffffffffffffffffffffffffffffffffff1673ffffffffffffffffffffffffffffffffffffffff16815260200190815260200160002081905550505b600073ffffffffffffffffffffffffffffffffffffffff168273ffffffffffffffffffffffffffffffffffffffff160361096357806002600082825403925050819055506109b0565b806000808473ffffffffffffffffffffffffffffffffffffffff1673ffffffffffffffffffffffffffffffffffffffff168152602001908152602001600020600082825401925050819055505b8173ffffffffffffffffffffffffffffffffffffffff168373ffffffffffffffffffffffffffffffffffffffff167fddf252ad1be2c89b69c2b068fc378daa952ba7f163c4a11628f55a4df523b3ef83604051610a0d9190610bea565b60405180910390a3505050565b600081519050919050565b600082825260208201905092915050565b60005b83811015610a54578082015181840152602081019050610a39565b60008484015250505050565b6000601f19601f8301169050919050565b6000610a7c82610a1a565b610a868185610a25565b9350610a96818560208601610a36565b610a9f81610a60565b840191505092915050565b60006020820190508181036000830152610ac48184610a71565b905092915050565b600080fd5b600073ffffffffffffffffffffffffffffffffffffffff82169050919050565b6000610afc82610ad1565b9050919050565b610b0c81610af1565b8114610b1757600080fd5b50565b600081359050610b2981610b03565b92915050565b6000819050919050565b610b4281610b2f565b8114610b4d57600080fd5b50565b600081359050610b5f81610b39565b92915050565b60008060408385031215610b7c57610b7b610acc565b5b6000610b8a85828601610b1a565b9250506020610b9b85828601610b50565b9150509250929050565b60008115159050919050565b610bba81610ba5565b82525050565b6000602082019050610bd56000830184610bb1565b92915050565b610be481610b2f565b82525050565b6000602082019050610bff6000830184610bdb565b92915050565b600080600060608486031215610c1e57610c1d610acc565b5b6000610c2c86828701610b1a565b9350506020610c3d86828701610b1a565b9250506040610c4e86828701610b50565b9150509250925092565b600060ff82169050919050565b610c6e81610c58565b82525050565b6000602082019050610c896000830184610c65565b92915050565b600060208284031215610ca557610ca4610acc565b5b6000610cb384828501610b1a565b91505092915050565b60008060408385031215610cd357610cd2610acc565b5b6000610ce185828601610b1a565b9250506020610cf285828601610b1a565b9150509250929050565b7f4e487b7100000000000000000000000000000000000000000000000000000000600052602260045260246000fd5b60006002820490506001821680610d4357607f821691505b602082108103610d5657610d55610cfc565b5b50919050565b610d6581610af1565b82525050565b6000606082019050610d806000830186610d5c565b610d8d6020830185610bdb565b610d9a6040830184610bdb565b949350505050565b6000602082019050610db76000830184610d5c565b92915050565b7f4e487b7100000000000000000000000000000000000000000000000000000000600052601160045260246000fd5b6000610df782610b2f565b9150610e0283610b2f565b9250828201905080821115610e1a57610e19610dbd565b5b9291505056fea26469706673582212204222f3e6001dd044914f1ed45538bc16d526f82abc77d24d172928788a3798cf64736f6c6343000814003360806040523480156200001157600080fd5b506040516200168938038062001689833981810160405281019062000037919062000132565b600160008190555080600160006101000a81548173ffffffffffffffffffffffffffffffffffffffff021916908373ffffffffffffffffffffffffffffffffffffffff16021790555033600260006101000a81548173ffffffffffffffffffffffffffffffffffffffff021916908373ffffffffffffffffffffffffffffffffffffffff1602179055505062000164565b600080fd5b600073ffffffffffffffffffffffffffffffffffffffff82169050919050565b6000620000fa82620000cd565b9050919050565b6200010c81620000ed565b81146200011857600080fd5b50565b6000815190506200012c8162000101565b92915050565b6000602082840312156200014b576200014a620000c8565b5b60006200015b848285016200011b565b91505092915050565b61151580620001746000396000f3fe6080604052600436106100c65760003560e01c8063a10954fe1161007f578063c4d66de811610059578063c4d66de814610258578063d701d1c814610274578063e4849b321461029f578063fc0c546a146102c8576100cd565b8063a10954fe146101f8578063a6f2ae3a14610223578063c45a01551461022d576100cd565b8063158ef93e146100d2578063322d2100146100fd57806369fcd4ac1461013a5780637824407f146101775780637c5e2795146101a25780639d1b464a146101cd576100cd565b366100cd57005b600080fd5b3480156100de57600080fd5b506100e76102f3565b6040516100f49190610bd5565b60405180910390f35b34801561010957600080fd5b50610124600480360381019061011f9190610c2b565b610306565b6040516101319190610c67565b60405180910390f35b34801561014657600080fd5b50610161600480360381019061015c9190610c2b565b6103ae565b60405161016e9190610c67565b60405180910390f35b34801561018357600080fd5b5061018c61046e565b6040516101999190610c67565b60405180910390f35b3480156101ae57600080fd5b506101b7610474565b6040516101c49190610c67565b60405180910390f35b3480156101d957600080fd5b506101e261047e565b6040516101ef9190610c67565b60405180910390f35b34801561020457600080fd5b5061020d6104e8565b60405161021a9190610c67565b60405180910390f35b61022b6104ee565b005b34801561023957600080fd5b506102426106b2565b60405161024f9190610cc3565b60405180910390f35b610272600480360381019061026d9190610d0a565b6106d8565b005b34801561028057600080fd5b5061028961086e565b6040516102969190610c67565b60405180910390f35b3480156102ab57600080fd5b506102c660048036038101906102c19190610c2b565b610873565b005b3480156102d457600080fd5b506102dd610ae7565b6040516102ea9190610cc3565b60405180910390f35b600560009054906101000a900460ff1681565b6000806004540361034c57610345655af3107a40006ec097ce7bc90715b34b9f1000000000846103369190610d66565b6103409190610dd7565b610b0d565b90506103a9565b60008260035461035c9190610e08565b90506000610394655af3107a40006ec097ce7bc90715b34b9f1000000000846103859190610d66565b61038f9190610dd7565b610b0d565b9050600454816103a49190610e3c565b925050505b919050565b60006004548211156103f5576040517f08c379a00000000000000000000000000000000000000000000000000000000081526004016103ec90610ecd565b60405180910390fd5b6000600454036104085760009050610469565b6000826004546104189190610e3c565b905060006ec097ce7bc90715b34b9f1000000000655af3107a4000600284610440919061102d565b61044a9190610d66565b6104549190610dd7565b9050806003546104649190610e3c565b925050505b919050565b60045481565b655af3107a400081565b6000806004540361049757655af3107a400090506104e5565b600160026104a59190610e3c565b670de0b6b3a76400006104b89190611078565b60026004546104c79190611078565b655af3107a40006104d89190610d66565b6104e29190610dd7565b90505b90565b60035481565b6104f6610b6a565b600061050134610306565b905060008111610546576040517f08c379a000000000000000000000000000000000000000000000000000000000815260040161053d9061110f565b60405180910390fd5b34600360008282546105589190610e08565b9250508190555080600460008282546105719190610e08565b92505081905550600160009054906101000a900473ffffffffffffffffffffffffffffffffffffffff1673ffffffffffffffffffffffffffffffffffffffff1663a9059cbb33836040518363ffffffff1660e01b81526004016105d592919061112f565b6020604051808303816000875af11580156105f4573d6000803e3d6000fd5b505050506040513d601f19601f820116820180604052508101906106189190611184565b610657576040517f08c379a000000000000000000000000000000000000000000000000000000000815260040161064e906111fd565b60405180910390fd5b3373ffffffffffffffffffffffffffffffffffffffff167fa9a40dec7a304e5915d11358b968c1e8d365992abf20f82285d1df1b30c8e24c348360405161069f92919061121d565b60405180910390a2506106b0610bb0565b565b600260009054906101000a900473ffffffffffffffffffffffffffffffffffffffff1681565b600260009054906101000a900473ffffffffffffffffffffffffffffffffffffffff1673ffffffffffffffffffffffffffffffffffffffff163373ffffffffffffffffffffffffffffffffffffffff1614610768576040517f08c379a000000000000000000000000000000000000000000000000000000000815260040161075f90611292565b60405180910390fd5b600560009054906101000a900460ff16156107b8576040517f08c379a00000000000000000000000000000000000000000000000000000000081526004016107af906112fe565b60405180910390fd5b600034116107fb576040517f08c379a00000000000000000000000000000000000000000000000000000000081526004016107f29061136a565b60405180910390fd5b346003819055506001600560006101000a81548160ff0219169083151502179055508073ffffffffffffffffffffffffffffffffffffffff167f25ff68dd81b34665b5ba7e553ee5511bf6812e12adb4a7e2c0d9e26b3099ce79346040516108639190610c67565b60405180910390a250565b600281565b61087b610b6a565b6000610886826103ae565b9050600081116108cb576040517f08c379a00000000000000000000000000000000000000000000000000000000081526004016108c2906113d6565b60405180910390fd5b80600360008282546108dd9190610e3c565b9250508190555081600460008282546108f69190610e3c565b9250508190555060003373ffffffffffffffffffffffffffffffffffffffff168260405161092390611427565b60006040518083038185875af1925050503d8060008114610960576040519150601f19603f3d011682016040523d82523d6000602084013e610965565b606091505b50509050806109a9576040517f08c379a00000000000000000000000000000000000000000000000000000000081526004016109a090611488565b60405180910390fd5b600160009054906101000a900473ffffffffffffffffffffffffffffffffffffffff1673ffffffffffffffffffffffffffffffffffffffff166323b872dd3330866040518463ffffffff1660e01b8152600401610a08939291906114a8565b6020604051808303816000875af1158015610a27573d6000803e3d6000fd5b505050506040513d601f19601f82011682018060405250810190610a4b9190611184565b610a8a576040517f08c379a0000000000000000000000000000000000000000000000000000000008152600401610a81906111fd565b60405180910390fd5b3373ffffffffffffffffffffffffffffffffffffffff167fbac9694ac0daa55169abd117086fe32c89401d9a3b15dd1d34e55e0aa4e47a9d8385604051610ad292919061121d565b60405180910390a25050610ae4610bb0565b50565b600160009054906101000a900473ffffffffffffffffffffffffffffffffffffffff1681565b6000806002600184610b1f9190610e08565b610b299190610dd7565b90508291505b81811015610b64578091506002818285610b499190610dd7565b610b539190610e08565b610b5d9190610dd7565b9050610b2f565b50919050565b600260005403610ba6576040517f3ee5aeb500000000000000000000000000000000000000000000000000000000815260040160405180910390fd5b6002600081905550565b6001600081905550565b60008115159050919050565b610bcf81610bba565b82525050565b6000602082019050610bea6000830184610bc6565b92915050565b600080fd5b6000819050919050565b610c0881610bf5565b8114610c1357600080fd5b50565b600081359050610c2581610bff565b92915050565b600060208284031215610c4157610c40610bf0565b5b6000610c4f84828501610c16565b91505092915050565b610c6181610bf5565b82525050565b6000602082019050610c7c6000830184610c58565b92915050565b600073ffffffffffffffffffffffffffffffffffffffff82169050919050565b6000610cad82610c82565b9050919050565b610cbd81610ca2565b82525050565b6000602082019050610cd86000830184610cb4565b92915050565b610ce781610ca2565b8114610cf257600080fd5b50565b600081359050610d0481610cde565b92915050565b600060208284031215610d2057610d1f610bf0565b5b6000610d2e84828501610cf5565b91505092915050565b7f4e487b7100000000000000000000000000000000000000000000000000000000600052601160045260246000fd5b6000610d7182610bf5565b9150610d7c83610bf5565b9250828202610d8a81610bf5565b91508282048414831517610da157610da0610d37565b5b5092915050565b7f4e487b7100000000000000000000000000000000000000000000000000000000600052601260045260246000fd5b6000610de282610bf5565b9150610ded83610bf5565b925082610dfd57610dfc610da8565b5b828204905092915050565b6000610e1382610bf5565b9150610e1e83610bf5565b9250828201905080821115610e3657610e35610d37565b5b92915050565b6000610e4782610bf5565b9150610e5283610bf5565b9250828203905081811115610e6a57610e69610d37565b5b92915050565b600082825260208201905092915050565b7f4e6f7420656e6f75676820746f6b656e7320696e20706f6f6c00000000000000600082015250565b6000610eb7601983610e70565b9150610ec282610e81565b602082019050919050565b60006020820190508181036000830152610ee681610eaa565b9050919050565b60008160011c9050919050565b6000808291508390505b6001851115610f4457808604811115610f2057610f1f610d37565b5b6001851615610f2f5780820291505b8081029050610f3d85610eed565b9450610f04565b94509492505050565b600082610f5d5760019050611019565b81610f6b5760009050611019565b8160018114610f815760028114610f8b57610fba565b6001915050611019565b60ff841115610f9d57610f9c610d37565b5b8360020a915084821115610fb457610fb3610d37565b5b50611019565b5060208310610133831016604e8410600b8410161715610fef5782820a905083811115610fea57610fe9610d37565b5b611019565b610ffc8484846001610efa565b9250905081840481111561101357611012610d37565b5b81810290505b9392505050565b600060ff82169050919050565b600061103882610bf5565b915061104383611020565b92506110707fffffffffffffffffffffffffffffffffffffffffffffffffffffffffffffffff8484610f4d565b905092915050565b600061108382610bf5565b915061108e83610bf5565b92506110bb7fffffffffffffffffffffffffffffffffffffffffffffffffffffffffffffffff8484610f4d565b905092915050565b7f496e76616c696420707572636861736520616d6f756e74000000000000000000600082015250565b60006110f9601783610e70565b9150611104826110c3565b602082019050919050565b60006020820190508181036000830152611128816110ec565b9050919050565b60006040820190506111446000830185610cb4565b6111516020830184610c58565b9392505050565b61116181610bba565b811461116c57600080fd5b50565b60008151905061117e81611158565b92915050565b60006020828403121561119a57611199610bf0565b5b60006111a88482850161116f565b91505092915050565b7f5472616e73666572206661696c65640000000000000000000000000000000000600082015250565b60006111e7600f83610e70565b91506111f2826111b1565b602082019050919050565b60006020820190508181036000830152611216816111da565b9050919050565b60006040820190506112326000830185610c58565b61123f6020830184610c58565b9392505050565b7f4f6e6c7920666163746f72792063616e20696e697469616c697a650000000000600082015250565b600061127c601b83610e70565b915061128782611246565b602082019050919050565b600060208201905081810360008301526112ab8161126f565b9050919050565b7f416c726561647920696e697469616c697a656400000000000000000000000000600082015250565b60006112e8601383610e70565b91506112f3826112b2565b602082019050919050565b60006020820190508181036000830152611317816112db565b9050919050565b7f4d7573742070726f7669646520696e697469616c206c69717569646974790000600082015250565b6000611354601e83610e70565b915061135f8261131e565b602082019050919050565b6000602082019050818103600083015261138381611347565b9050919050565b7f496e76616c69642073616c6520616d6f756e7400000000000000000000000000600082015250565b60006113c0601383610e70565b91506113cb8261138a565b602082019050919050565b600060208201905081810360008301526113ef816113b3565b9050919050565b600081905092915050565b50565b60006114116000836113f6565b915061141c82611401565b600082019050919050565b600061143282611404565b9150819050919050565b7f455448207472616e73666572206661696c656400000000000000000000000000600082015250565b6000611472601383610e70565b915061147d8261143c565b602082019050919050565b600060208201905081810360008301526114a181611465565b9050919050565b60006060820190506114bd6000830186610cb4565b6114ca6020830185610cb4565b6114d76040830184610c58565b94935050505056fea2646970667358221220c8833377d6dc74d74bc4da6159de8e0edd0887ea1d6a5f9002c6464100b9804e64736f6c63430008140033a26469706673582212207eb79db7a69d29d4ef8354d0b119d8eec58ec7710fa0f4fa40659a9bbd5f9bde64736f6c63430008140033",
  "linkReferences": {},
  "deployedLinkReferences": {}
}