{
  "_format": "hh-sol-artifact-1",
  "contractName": "TokenVesting",
  "sourceName": "contracts/TokenVesting.sol",
  "abi": [
    {
      "inputs": [],
      "stateMutability": "nonpayable",
      "type": "constructor"
    },
    {
      "inputs": [
        {
          "internalType": "address",
          "name": "owner",
          "type": "address"
        }
      ],
      "name": "OwnableInvalidOwner",
      "type": "error"
    },
    {
      "inputs": [
        {
          "internalType": "address",
          "name": "account",
          "type": "address"
        }
      ],
      "name": "OwnableUnauthorizedAccount",
      "type": "error"
    },
    {
      "inputs": [],
      "name": "ReentrancyGuardReentrantCall",
      "type": "error"
    },
    {
      "inputs": [
        {
          "internalType": "address",
          "name": "token",
          "type": "address"
        }
      ],
      "name": "SafeERC20FailedOperation",
      "type": "error"
    },
    {
      "anonymous": false,
      "inputs": [
        {
          "indexed": true,
          "internalType": "address",
          "name": "previousOwner",
          "type": "address"
        },
        {
          "indexed": true,
          "internalType": "address",
          "name": "newOwner",
          "type": "address"
        }
      ],
      "name": "OwnershipTransferred",
      "type": "event"
    },
    {
      "anonymous": false,
      "inputs": [
        {
          "indexed": true,
          "internalType": "address",
          "name": "pool",
          "type": "address"
        },
        {
          "indexed": false,
          "internalType": "bool",
          "name": "authorized",
          "type": "bool"
        }
      ],
      "name": "PoolAuthorized",
      "type": "event"
    },
    {
      "anonymous": false,
      "inputs": [
        {
          "indexed": true,
          "internalType": "address",
          "name": "token",
          "type": "address"
        },
        {
          "indexed": true,
          "internalType": "address",
          "name": "beneficiary",
          "type": "address"
        },
        {
          "indexed": false,
          "internalType": "uint256",
          "name": "amount",
          "type": "uint256"
        }
      ],
      "name": "TokensReleased",
      "type": "event"
    },
    {
      "anonymous": false,
      "inputs": [
        {
          "indexed": true,
          "internalType": "address",
          "name": "token",
          "type": "address"
        },
        {
          "indexed": true,
          "internalType": "address",
          "name": "beneficiary",
          "type": "address"
        },
        {
          "indexed": false,
          "internalType": "uint256",
          "name": "scheduleId",
          "type": "uint256"
        }
      ],
      "name": "VestingRevoked",
      "type": "event"
    },
    {
      "anonymous": false,
      "inputs": [
        {
          "indexed": true,
          "internalType": "address",
          "name": "token",
          "type": "address"
        },
        {
          "indexed": true,
          "internalType": "address",
          "name": "beneficiary",
          "type": "address"
        },
        {
          "indexed": false,
          "internalType": "uint256",
          "name": "scheduleId",
          "type": "uint256"
        },
        {
          "indexed": false,
          "internalType": "uint256",
          "name": "amount",
          "type": "uint256"
        },
        {
          "indexed": false,
          "internalType": "uint256",
          "name": "startTime",
          "type": "uint256"
        },
        {
          "indexed": false,
          "internalType": "uint256",
          "name": "cliffDuration",
          "type": "uint256"
        },
        {
          "indexed": false,
          "internalType": "uint256",
          "name": "vestingDuration",
          "type": "uint256"
        }
      ],
      "name": "VestingScheduleCreated",
      "type": "event"
    },
    {
      "inputs": [
        {
          "internalType": "address",
          "name": "pool",
          "type": "address"
        },
        {
          "internalType": "bool",
          "name": "authorized",
          "type": "bool"
        }
      ],
      "name": "authorizePool",
      "outputs": [],
      "stateMutability": "nonpayable",
      "type": "function"
    },
    {
      "inputs": [
        {
          "internalType": "address",
          "name": "",
          "type": "address"
        }
      ],
      "name": "authorizedPools",
      "outputs": [
        {
          "internalType": "bool",
          "name": "",
          "type": "bool"
        }
      ],
      "stateMutability": "view",
      "type": "function"
    },
    {
      "inputs": [
        {
          "internalType": "uint256",
          "name": "currentSupply",
          "type": "uint256"
        },
        {
          "internalType": "uint256",
          "name": "maxSupply",
          "type": "uint256"
        }
      ],
      "name": "calculateVestingParams",
      "outputs": [
        {
          "internalType": "uint256",
          "name": "cliffDuration",
          "type": "uint256"
        },
        {
          "internalType": "uint256",
          "name": "vestingDuration",
          "type": "uint256"
        }
      ],
      "stateMutability": "pure",
      "type": "function"
    },
    {
      "inputs": [
        {
          "internalType": "address",
          "name": "token",
          "type": "address"
        }
      ],
      "name": "claim",
      "outputs": [],
      "stateMutability": "nonpayable",
      "type": "function"
    },
    {
      "inputs": [
        {
          "internalType": "address",
          "name": "token",
          "type": "address"
        },
        {
          "internalType": "address",
          "name": "beneficiary",
          "type": "address"
        },
        {
          "internalType": "uint256",
          "name": "amount",
          "type": "uint256"
        },
        {
          "internalType": "uint256",
          "name": "cliffDuration",
          "type": "uint256"
        },
        {
          "internalType": "uint256",
          "name": "vestingDuration",
          "type": "uint256"
        }
      ],
      "name": "createVestingSchedule",
      "outputs": [
        {
          "internalType": "uint256",
          "name": "",
          "type": "uint256"
        }
      ],
      "stateMutability": "nonpayable",
      "type": "function"
    },
    {
      "inputs": [
        {
          "internalType": "address",
          "name": "token",
          "type": "address"
        },
        {
          "internalType": "address",
          "name": "beneficiary",
          "type": "address"
        }
      ],
      "name": "getClaimableAmount",
      "outputs": [
        {
          "internalType": "uint256",
          "name": "",
          "type": "uint256"
        }
      ],
      "stateMutability": "view",
      "type": "function"
    },
    {
      "inputs": [
        {
          "internalType": "address",
          "name": "token",
          "type": "address"
        },
        {
          "internalType": "address",
          "name": "beneficiary",
          "type": "address"
        }
      ],
      "name": "getLockedAmount",
      "outputs": [
        {
          "internalType": "uint256",
          "name": "",
          "type": "uint256"
        }
      ],
      "stateMutability": "view",
      "type": "function"
    },
    {
      "inputs": [
        {
          "internalType": "address",
          "name": "token",
          "type": "address"
        },
        {
          "internalType": "address",
          "name": "beneficiary",
          "type": "address"
        }
      ],
      "name": "getTotalVestedAmount",
      "outputs": [
        {
          "internalType": "uint256",
          "name": "",
          "type": "uint256"
        }
      ],
      "stateMutability": "view",
      "type": "function"
    },
    {
      "inputs": [
        {
          "internalType": "address",
          "name": "token",
          "type": "address"
        },
        {
          "internalType": "address",
          "name": "beneficiary",
          "type": "address"
        },
        {
          "internalType": "uint256",
          "name": "scheduleId",
          "type": "uint256"
        }
      ],
      "name": "getVestingSchedule",
      "outputs": [
        {
          "components": [
            {
              "internalType": "uint256",
              "name": "totalAmount",
              "type": "uint256"
            },
            {
              "internalType": "uint256",
              "name": "startTime",
              "type": "uint256"
            },
            {
              "internalType": "uint256",
              "name": "cliffDuration",
              "type": "uint256"
            },
            {
              "internalType": "uint256",
              "name": "vestingDuration",
              "type": "uint256"
            },
            {
              "internalType": "uint256",
              "name": "releasedAmount",
              "type": "uint256"
            },
            {
              "internalType": "bool",
              "name": "revoked",
              "type": "bool"
            }
          ],
          "internalType": "struct TokenVesting.VestingSchedule",
          "name": "",
          "type": "tuple"
        }
      ],
      "stateMutability": "view",
      "type": "function"
    },
    {
      "inputs": [
        {
          "internalType": "address",
          "name": "token",
          "type": "address"
        },
        {
          "internalType": "address",
          "name": "beneficiary",
          "type": "address"
        }
      ],
      "name": "getVestingScheduleCount",
      "outputs": [
        {
          "internalType": "uint256",
          "name": "",
          "type": "uint256"
        }
      ],
      "stateMutability": "view",
      "type": "function"
    },
    {
      "inputs": [
        {
          "internalType": "address",
          "name": "token",
          "type": "address"
        },
        {
          "internalType": "address",
          "name": "beneficiary",
          "type": "address"
        }
      ],
      "name": "getVestingSchedules",
      "outputs": [
        {
          "components": [
            {
              "internalType": "uint256",
              "name": "totalAmount",
              "type": "uint256"
            },
            {
              "internalType": "uint256",
              "name": "startTime",
              "type": "uint256"
            },
            {
              "internalType": "uint256",
              "name": "cliffDuration",
              "type": "uint256"
            },
            {
              "internalType": "uint256",
              "name": "vestingDuration",
              "type": "uint256"
            },
            {
              "internalType": "uint256",
              "name": "releasedAmount",
              "type": "uint256"
            },
            {
              "internalType": "bool",
              "name": "revoked",
              "type": "bool"
            }
          ],
          "internalType": "struct TokenVesting.VestingSchedule[]",
          "name": "",
          "type": "tuple[]"
        }
      ],
      "stateMutability": "view",
      "type": "function"
    },
    {
      "inputs": [],
      "name": "owner",
      "outputs": [
        {
          "internalType": "address",
          "name": "",
          "type": "address"
        }
      ],
      "stateMutability": "view",
      "type": "function"
    },
    {
      "inputs": [],
      "name": "renounceOwnership",
      "outputs": [],
      "stateMutability": "nonpayable",
      "type": "function"
    },
    {
      "inputs": [
        {
          "internalType": "address",
          "name": "token",
          "type": "address"
        },
        {
          "internalType": "address",
          "name": "beneficiary",
          "type": "address"
        },
        {
          "internalType": "uint256",
          "name": "scheduleId",
          "type": "uint256"
        },
        {
          "internalType": "address",
          "name": "poolAddress",
          "type": "address"
        }
      ],
      "name": "revokeVesting",
      "outputs": [],
      "stateMutability": "nonpayable",
      "type": "function"
    },
    {
      "inputs": [
        {
          "internalType": "address",
          "name": "newOwner",
          "type": "address"
        }
      ],
      "name": "transferOwnership",
      "outputs": [],
      "stateMutability": "nonpayable",
      "type": "function"
    }
  ],
  "bytecode": "0x60806040523480156200001157600080fd5b50336001600081905550600073ffffffffffffffffffffffffffffffffffffffff168173ffffffffffffffffffffffffffffffffffffffff1603620000905760006040517f1e4fbdf7000000000000000000000000000000000000000000000000000000008152600401620000879190620001b3565b60405180910390fd5b620000a181620000a860201b60201c565b50620001d0565b6000600160009054906101000a900473ffffffffffffffffffffffffffffffffffffffff16905081600160006101000a81548173ffffffffffffffffffffffffffffffffffffffff021916908373ffffffffffffffffffffffffffffffffffffffff1602179055508173ffffffffffffffffffffffffffffffffffffffff168173ffffffffffffffffffffffffffffffffffffffff167f8be0079c531659141344cd1fd0a4f28419497f9722a3daafe3b4186f6b6457e060405160405180910390a35050565b600073ffffffffffffffffffffffffffffffffffffffff82169050919050565b60006200019b826200016e565b9050919050565b620001ad816200018e565b82525050565b6000602082019050620001ca6000830184620001a2565b92915050565b61289980620001e06000396000f3fe608060405234801561001057600080fd5b50600436106100f55760003560e01c806390a95d6f11610097578063c921634411610066578063c9216344146102ab578063e816b393146102c7578063ee87f24c146102f7578063f2fde38b14610327576100f5565b806390a95d6f146101fe578063a7d891681461022f578063bb7dbfe71461025f578063bcf575dd1461028f576100f5565b80632f50bd72116100d35780632f50bd721461017657806367ee1e60146101a6578063715018a6146101d65780638da5cb5b146101e0576100f5565b80630b8d9ba6146100fa5780631e83409a1461012a5780632a1ee52814610146575b600080fd5b610114600480360381019061010f9190611c80565b610343565b6040516101219190611cd9565b60405180910390f35b610144600480360381019061013f9190611cf4565b6104b8565b005b610160600480360381019061015b9190611c80565b61077e565b60405161016d9190611cd9565b60405180910390f35b610190600480360381019061018b9190611c80565b610808565b60405161019d9190611e75565b60405180910390f35b6101c060048036038101906101bb9190611ec3565b610931565b6040516101cd9190611cd9565b60405180910390f35b6101de610d5e565b005b6101e8610d72565b6040516101f59190611f4d565b60405180910390f35b61021860048036038101906102139190611f68565b610d9c565b604051610226929190611fa8565b60405180910390f35b61024960048036038101906102449190611c80565b610eaa565b6040516102569190611cd9565b60405180910390f35b61027960048036038101906102749190611c80565b611054565b6040516102869190611cd9565b60405180910390f35b6102a960048036038101906102a49190611fd1565b6111fe565b005b6102c560048036038101906102c09190612064565b6114f2565b005b6102e160048036038101906102dc9190611cf4565b6115a3565b6040516102ee91906120b3565b60405180910390f35b610311600480360381019061030c91906120ce565b6115c3565b60405161031e919061219c565b60405180910390f35b610341600480360381019061033c9190611cf4565b611789565b005b600080600260008573ffffffffffffffffffffffffffffffffffffffff1673ffffffffffffffffffffffffffffffffffffffff16815260200190815260200160002060008473ffffffffffffffffffffffffffffffffffffffff1673ffffffffffffffffffffffffffffffffffffffff16815260200190815260200160002090506000805b82805490508110156104ac578281815481106103e7576103e66121b7565b5b906000526020600020906006020160050160009054906101000a900460ff166104995761048b8382815481106104205761041f6121b7565b5b90600052602060002090600602016040518060c001604052908160008201548152602001600182015481526020016002820154815260200160038201548152602001600482015481526020016005820160009054906101000a900460ff16151515158152505061180f565b826104969190612215565b91505b80806104a490612249565b9150506103c8565b50809250505092915050565b6104c061189d565b60006104cc8233611054565b905060008111610511576040517f08c379a0000000000000000000000000000000000000000000000000000000008152600401610508906122ee565b60405180910390fd5b6000600260008473ffffffffffffffffffffffffffffffffffffffff1673ffffffffffffffffffffffffffffffffffffffff16815260200190815260200160002060003373ffffffffffffffffffffffffffffffffffffffff1673ffffffffffffffffffffffffffffffffffffffff168152602001908152602001600020905060005b81805490508110156106e0578181815481106105b3576105b26121b7565b5b906000526020600020906006020160050160009054906101000a900460ff166106cd5760006106598383815481106105ee576105ed6121b7565b5b90600052602060002090600602016040518060c001604052908160008201548152602001600182015481526020016002820154815260200160038201548152602001600482015481526020016005820160009054906101000a900460ff16151515158152505061180f565b905060008383815481106106705761066f6121b7565b5b9060005260206000209060060201600401548261068d919061230e565b9050808484815481106106a3576106a26121b7565b5b906000526020600020906006020160040160008282546106c39190612215565b9250508190555050505b80806106d890612249565b915050610594565b5061070c33838573ffffffffffffffffffffffffffffffffffffffff166118e39092919063ffffffff16565b3373ffffffffffffffffffffffffffffffffffffffff168373ffffffffffffffffffffffffffffffffffffffff167f3737f2a73c794dafe53d8aeea06810a9ebcf7167401b259406960e088e03f830846040516107699190611cd9565b60405180910390a3505061077b611962565b50565b6000600260008473ffffffffffffffffffffffffffffffffffffffff1673ffffffffffffffffffffffffffffffffffffffff16815260200190815260200160002060008373ffffffffffffffffffffffffffffffffffffffff1673ffffffffffffffffffffffffffffffffffffffff16815260200190815260200160002080549050905092915050565b6060600260008473ffffffffffffffffffffffffffffffffffffffff1673ffffffffffffffffffffffffffffffffffffffff16815260200190815260200160002060008373ffffffffffffffffffffffffffffffffffffffff1673ffffffffffffffffffffffffffffffffffffffff168152602001908152602001600020805480602002602001604051908101604052809291908181526020016000905b8282101561092557838290600052602060002090600602016040518060c001604052908160008201548152602001600182015481526020016002820154815260200160038201548152602001600482015481526020016005820160009054906101000a900460ff161515151581525050815260200190600101906108a6565b50505050905092915050565b6000600360003373ffffffffffffffffffffffffffffffffffffffff1673ffffffffffffffffffffffffffffffffffffffff16815260200190815260200160002060009054906101000a900460ff166109bf576040517f08c379a00000000000000000000000000000000000000000000000000000000081526004016109b69061238e565b60405180910390fd5b600073ffffffffffffffffffffffffffffffffffffffff168573ffffffffffffffffffffffffffffffffffffffff1603610a2e576040517f08c379a0000000000000000000000000000000000000000000000000000000008152600401610a25906123fa565b60405180910390fd5b60008411610a71576040517f08c379a0000000000000000000000000000000000000000000000000000000008152600401610a6890612466565b60405180910390fd5b60008211610ab4576040517f08c379a0000000000000000000000000000000000000000000000000000000008152600401610aab906124d2565b60405180910390fd5b81831115610af7576040517f08c379a0000000000000000000000000000000000000000000000000000000008152600401610aee9061253e565b60405180910390fd5b610b243330868973ffffffffffffffffffffffffffffffffffffffff1661196c909392919063ffffffff16565b60006040518060c0016040528086815260200142815260200185815260200184815260200160008152602001600015158152509050600260008873ffffffffffffffffffffffffffffffffffffffff1673ffffffffffffffffffffffffffffffffffffffff16815260200190815260200160002060008773ffffffffffffffffffffffffffffffffffffffff1673ffffffffffffffffffffffffffffffffffffffff168152602001908152602001600020819080600181540180825580915050600190039060005260206000209060060201600090919091909150600082015181600001556020820151816001015560408201518160020155606082015181600301556080820151816004015560a08201518160050160006101000a81548160ff021916908315150217905550505060006001600260008a73ffffffffffffffffffffffffffffffffffffffff1673ffffffffffffffffffffffffffffffffffffffff16815260200190815260200160002060008973ffffffffffffffffffffffffffffffffffffffff1673ffffffffffffffffffffffffffffffffffffffff16815260200190815260200160002080549050610ce1919061230e565b90508673ffffffffffffffffffffffffffffffffffffffff168873ffffffffffffffffffffffffffffffffffffffff167fd667ec3255c57a6021a5d653c63bd2a4bd8e4b84918f552401f2f1e076aa4e328389428a8a604051610d4895949392919061255e565b60405180910390a3809250505095945050505050565b610d666119ee565b610d706000611a75565b565b6000600160009054906101000a900473ffffffffffffffffffffffffffffffffffffffff16905090565b60008060008311610de2576040517f08c379a0000000000000000000000000000000000000000000000000000000008152600401610dd9906125fd565b60405180910390fd5b82841115610e25576040517f08c379a0000000000000000000000000000000000000000000000000000000008152600401610e1c90612669565b60405180910390fd5b60008361271086610e369190612689565b610e4091906126fa565b90506107d08111610e5d5762093a806276a7009250925050610ea3565b6113888111610e78576212750062ed4e009250925050610ea3565b611f408111610e945762278d00630163f5009250925050610ea3565b624f1a006301e1338092509250505b9250929050565b600080600260008573ffffffffffffffffffffffffffffffffffffffff1673ffffffffffffffffffffffffffffffffffffffff16815260200190815260200160002060008473ffffffffffffffffffffffffffffffffffffffff1673ffffffffffffffffffffffffffffffffffffffff16815260200190815260200160002090506000805b828054905081101561104857828181548110610f4e57610f4d6121b7565b5b906000526020600020906006020160050160009054906101000a900460ff16611035576000610ff4848381548110610f8957610f886121b7565b5b90600052602060002090600602016040518060c001604052908160008201548152602001600182015481526020016002820154815260200160038201548152602001600482015481526020016005820160009054906101000a900460ff16151515158152505061180f565b90508084838154811061100a576110096121b7565b5b906000526020600020906006020160000154611026919061230e565b836110319190612215565b9250505b808061104090612249565b915050610f2f565b50809250505092915050565b600080600260008573ffffffffffffffffffffffffffffffffffffffff1673ffffffffffffffffffffffffffffffffffffffff16815260200190815260200160002060008473ffffffffffffffffffffffffffffffffffffffff1673ffffffffffffffffffffffffffffffffffffffff16815260200190815260200160002090506000805b82805490508110156111f2578281815481106110f8576110f76121b7565b5b906000526020600020906006020160050160009054906101000a900460ff166111df57600061119e848381548110611133576111326121b7565b5b90600052602060002090600602016040518060c001604052908160008201548152602001600182015481526020016002820154815260200160038201548152602001600482015481526020016005820160009054906101000a900460ff16151515158152505061180f565b90508382815481106111b3576111b26121b7565b5b906000526020600020906006020160040154816111d0919061230e565b836111db9190612215565b9250505b80806111ea90612249565b9150506110d9565b50809250505092915050565b6112066119ee565b600260008573ffffffffffffffffffffffffffffffffffffffff1673ffffffffffffffffffffffffffffffffffffffff16815260200190815260200160002060008473ffffffffffffffffffffffffffffffffffffffff1673ffffffffffffffffffffffffffffffffffffffff1681526020019081526020016000208054905082106112c7576040517f08c379a00000000000000000000000000000000000000000000000000000000081526004016112be90612777565b60405180910390fd5b6000600260008673ffffffffffffffffffffffffffffffffffffffff1673ffffffffffffffffffffffffffffffffffffffff16815260200190815260200160002060008573ffffffffffffffffffffffffffffffffffffffff1673ffffffffffffffffffffffffffffffffffffffff1681526020019081526020016000208381548110611357576113566121b7565b5b906000526020600020906006020190508060050160009054906101000a900460ff16156113b9576040517f08c379a00000000000000000000000000000000000000000000000000000000081526004016113b0906127e3565b60405180910390fd5b600061141c826040518060c001604052908160008201548152602001600182015481526020016002820154815260200160038201548152602001600482015481526020016005820160009054906101000a900460ff16151515158152505061180f565b90506000818360000154611430919061230e565b905060018360050160006101000a81548160ff02191690831515021790555060008111156114845761148384828973ffffffffffffffffffffffffffffffffffffffff166118e39092919063ffffffff16565b5b8573ffffffffffffffffffffffffffffffffffffffff168773ffffffffffffffffffffffffffffffffffffffff167f5eda216547bfbff2ffbc5faf579b24c0cdd766049640f9dd333968ad81cfc563876040516114e19190611cd9565b60405180910390a350505050505050565b6114fa6119ee565b80600360008473ffffffffffffffffffffffffffffffffffffffff1673ffffffffffffffffffffffffffffffffffffffff16815260200190815260200160002060006101000a81548160ff0219169083151502179055508173ffffffffffffffffffffffffffffffffffffffff167fe36c1c5646056c35ea7cf47929401e11acbbe689ed31e681ae372723ce3621dc8260405161159791906120b3565b60405180910390a25050565b60036020528060005260406000206000915054906101000a900460ff1681565b6115cb611be5565b600260008573ffffffffffffffffffffffffffffffffffffffff1673ffffffffffffffffffffffffffffffffffffffff16815260200190815260200160002060008473ffffffffffffffffffffffffffffffffffffffff1673ffffffffffffffffffffffffffffffffffffffff16815260200190815260200160002080549050821061168c576040517f08c379a000000000000000000000000000000000000000000000000000000000815260040161168390612777565b60405180910390fd5b600260008573ffffffffffffffffffffffffffffffffffffffff1673ffffffffffffffffffffffffffffffffffffffff16815260200190815260200160002060008473ffffffffffffffffffffffffffffffffffffffff1673ffffffffffffffffffffffffffffffffffffffff168152602001908152602001600020828154811061171a576117196121b7565b5b90600052602060002090600602016040518060c001604052908160008201548152602001600182015481526020016002820154815260200160038201548152602001600482015481526020016005820160009054906101000a900460ff16151515158152505090509392505050565b6117916119ee565b600073ffffffffffffffffffffffffffffffffffffffff168173ffffffffffffffffffffffffffffffffffffffff16036118035760006040517f1e4fbdf70000000000000000000000000000000000000000000000000000000081526004016117fa9190611f4d565b60405180910390fd5b61180c81611a75565b50565b6000816040015182602001516118259190612215565b4210156118355760009050611898565b816060015182602001516118499190612215565b421061185b5781600001519050611898565b600082602001514261186d919061230e565b9050600083606001518285600001516118869190612689565b61189091906126fa565b905080925050505b919050565b6002600054036118d9576040517f3ee5aeb500000000000000000000000000000000000000000000000000000000815260040160405180910390fd5b6002600081905550565b61195d838473ffffffffffffffffffffffffffffffffffffffff1663a9059cbb8585604051602401611916929190612803565b604051602081830303815290604052915060e01b6020820180517bffffffffffffffffffffffffffffffffffffffffffffffffffffffff8381831617835250505050611b3b565b505050565b6001600081905550565b6119e8848573ffffffffffffffffffffffffffffffffffffffff166323b872dd8686866040516024016119a19392919061282c565b604051602081830303815290604052915060e01b6020820180517bffffffffffffffffffffffffffffffffffffffffffffffffffffffff8381831617835250505050611b3b565b50505050565b6119f6611bdd565b73ffffffffffffffffffffffffffffffffffffffff16611a14610d72565b73ffffffffffffffffffffffffffffffffffffffff1614611a7357611a37611bdd565b6040517f118cdaa7000000000000000000000000000000000000000000000000000000008152600401611a6a9190611f4d565b60405180910390fd5b565b6000600160009054906101000a900473ffffffffffffffffffffffffffffffffffffffff16905081600160006101000a81548173ffffffffffffffffffffffffffffffffffffffff021916908373ffffffffffffffffffffffffffffffffffffffff1602179055508173ffffffffffffffffffffffffffffffffffffffff168173ffffffffffffffffffffffffffffffffffffffff167f8be0079c531659141344cd1fd0a4f28419497f9722a3daafe3b4186f6b6457e060405160405180910390a35050565b600080602060008451602086016000885af180611b5e576040513d6000823e3d81fd5b3d925060005191505060008214611b79576001811415611b95565b60008473ffffffffffffffffffffffffffffffffffffffff163b145b15611bd757836040517f5274afe7000000000000000000000000000000000000000000000000000000008152600401611bce9190611f4d565b60405180910390fd5b50505050565b600033905090565b6040518060c0016040528060008152602001600081526020016000815260200160008152602001600081526020016000151581525090565b600080fd5b600073ffffffffffffffffffffffffffffffffffffffff82169050919050565b6000611c4d82611c22565b9050919050565b611c5d81611c42565b8114611c6857600080fd5b50565b600081359050611c7a81611c54565b92915050565b60008060408385031215611c9757611c96611c1d565b5b6000611ca585828601611c6b565b9250506020611cb685828601611c6b565b9150509250929050565b6000819050919050565b611cd381611cc0565b82525050565b6000602082019050611cee6000830184611cca565b92915050565b600060208284031215611d0a57611d09611c1d565b5b6000611d1884828501611c6b565b91505092915050565b600081519050919050565b600082825260208201905092915050565b6000819050602082019050919050565b611d5681611cc0565b82525050565b60008115159050919050565b611d7181611d5c565b82525050565b60c082016000820151611d8d6000850182611d4d565b506020820151611da06020850182611d4d565b506040820151611db36040850182611d4d565b506060820151611dc66060850182611d4d565b506080820151611dd96080850182611d4d565b5060a0820151611dec60a0850182611d68565b50505050565b6000611dfe8383611d77565b60c08301905092915050565b6000602082019050919050565b6000611e2282611d21565b611e2c8185611d2c565b9350611e3783611d3d565b8060005b83811015611e68578151611e4f8882611df2565b9750611e5a83611e0a565b925050600181019050611e3b565b5085935050505092915050565b60006020820190508181036000830152611e8f8184611e17565b905092915050565b611ea081611cc0565b8114611eab57600080fd5b50565b600081359050611ebd81611e97565b92915050565b600080600080600060a08688031215611edf57611ede611c1d565b5b6000611eed88828901611c6b565b9550506020611efe88828901611c6b565b9450506040611f0f88828901611eae565b9350506060611f2088828901611eae565b9250506080611f3188828901611eae565b9150509295509295909350565b611f4781611c42565b82525050565b6000602082019050611f626000830184611f3e565b92915050565b60008060408385031215611f7f57611f7e611c1d565b5b6000611f8d85828601611eae565b9250506020611f9e85828601611eae565b9150509250929050565b6000604082019050611fbd6000830185611cca565b611fca6020830184611cca565b9392505050565b60008060008060808587031215611feb57611fea611c1d565b5b6000611ff987828801611c6b565b945050602061200a87828801611c6b565b935050604061201b87828801611eae565b925050606061202c87828801611c6b565b91505092959194509250565b61204181611d5c565b811461204c57600080fd5b50565b60008135905061205e81612038565b92915050565b6000806040838503121561207b5761207a611c1d565b5b600061208985828601611c6b565b925050602061209a8582860161204f565b9150509250929050565b6120ad81611d5c565b82525050565b60006020820190506120c860008301846120a4565b92915050565b6000806000606084860312156120e7576120e6611c1d565b5b60006120f586828701611c6b565b935050602061210686828701611c6b565b925050604061211786828701611eae565b9150509250925092565b60c0820160008201516121376000850182611d4d565b50602082015161214a6020850182611d4d565b50604082015161215d6040850182611d4d565b5060608201516121706060850182611d4d565b5060808201516121836080850182611d4d565b5060a082015161219660a0850182611d68565b50505050565b600060c0820190506121b16000830184612121565b92915050565b7f4e487b7100000000000000000000000000000000000000000000000000000000600052603260045260246000fd5b7f4e487b7100000000000000000000000000000000000000000000000000000000600052601160045260246000fd5b600061222082611cc0565b915061222b83611cc0565b9250828201905080821115612243576122426121e6565b5b92915050565b600061225482611cc0565b91507fffffffffffffffffffffffffffffffffffffffffffffffffffffffffffffffff8203612286576122856121e6565b5b600182019050919050565b600082825260208201905092915050565b7f4e6f20746f6b656e7320746f20636c61696d0000000000000000000000000000600082015250565b60006122d8601283612291565b91506122e3826122a2565b602082019050919050565b60006020820190508181036000830152612307816122cb565b9050919050565b600061231982611cc0565b915061232483611cc0565b925082820390508181111561233c5761233b6121e6565b5b92915050565b7f4e6f7420617574686f72697a6564000000000000000000000000000000000000600082015250565b6000612378600e83612291565b915061238382612342565b602082019050919050565b600060208201905081810360008301526123a78161236b565b9050919050565b7f496e76616c69642062656e656669636961727900000000000000000000000000600082015250565b60006123e4601383612291565b91506123ef826123ae565b602082019050919050565b60006020820190508181036000830152612413816123d7565b9050919050565b7f416d6f756e74206d757374206265203e20300000000000000000000000000000600082015250565b6000612450601283612291565b915061245b8261241a565b602082019050919050565b6000602082019050818103600083015261247f81612443565b9050919050565b7f4475726174696f6e206d757374206265203e2030000000000000000000000000600082015250565b60006124bc601483612291565b91506124c782612486565b602082019050919050565b600060208201905081810360008301526124eb816124af565b9050919050565b7f436c69666620746f6f206c6f6e67000000000000000000000000000000000000600082015250565b6000612528600e83612291565b9150612533826124f2565b602082019050919050565b600060208201905081810360008301526125578161251b565b9050919050565b600060a0820190506125736000830188611cca565b6125806020830187611cca565b61258d6040830186611cca565b61259a6060830185611cca565b6125a76080830184611cca565b9695505050505050565b7f4d617820737570706c79206d757374206265203e203000000000000000000000600082015250565b60006125e7601683612291565b91506125f2826125b1565b602082019050919050565b60006020820190508181036000830152612616816125da565b9050919050565b7f43757272656e742065786365656473206d617800000000000000000000000000600082015250565b6000612653601383612291565b915061265e8261261d565b602082019050919050565b6000602082019050818103600083015261268281612646565b9050919050565b600061269482611cc0565b915061269f83611cc0565b92508282026126ad81611cc0565b915082820484148315176126c4576126c36121e6565b5b5092915050565b7f4e487b7100000000000000000000000000000000000000000000000000000000600052601260045260246000fd5b600061270582611cc0565b915061271083611cc0565b9250826127205761271f6126cb565b5b828204905092915050565b7f496e76616c6964207363686564756c6520494400000000000000000000000000600082015250565b6000612761601383612291565b915061276c8261272b565b602082019050919050565b6000602082019050818103600083015261279081612754565b9050919050565b7f416c7265616479207265766f6b65640000000000000000000000000000000000600082015250565b60006127cd600f83612291565b91506127d882612797565b602082019050919050565b600060208201905081810360008301526127fc816127c0565b9050919050565b60006040820190506128186000830185611f3e565b6128256020830184611cca565b9392505050565b60006060820190506128416000830186611f3e565b61284e6020830185611f3e565b61285b6040830184611cca565b94935050505056fea26469706673582212206c91919e8b94190b9a56b5ab27e9030ea11b00f681cca02c5c60c3f75055cffd64736f6c63430008140033",
  "linkReferences": {},
  "deployedLinkReferences": {}
}